{
  "_format": "hh-sol-artifact-1",
  "contractName": "SavorVault",
  "sourceName": "contracts/SavorVault.sol",
  "abi": [
    {
      "inputs": [
        {
          "internalType": "contract ERC20",
          "name": "_UNDERLYING",
          "type": "address"
        },
        {
          "internalType": "address",
          "name": "_bridgerton",
          "type": "address"
        }
      ],
      "stateMutability": "nonpayable",
      "type": "constructor"
    },
    {
      "anonymous": false,
      "inputs": [
        {
          "indexed": true,
          "internalType": "address",
          "name": "owner",
          "type": "address"
        },
        {
          "indexed": true,
          "internalType": "address",
          "name": "spender",
          "type": "address"
        },
        {
          "indexed": false,
          "internalType": "uint256",
          "name": "amount",
          "type": "uint256"
        }
      ],
      "name": "Approval",
      "type": "event"
    },
    {
      "anonymous": false,
      "inputs": [
        {
          "indexed": true,
          "internalType": "address",
          "name": "caller",
          "type": "address"
        },
        {
          "indexed": true,
          "internalType": "address",
          "name": "owner",
          "type": "address"
        },
        {
          "indexed": false,
          "internalType": "uint256",
          "name": "assets",
          "type": "uint256"
        },
        {
          "indexed": false,
          "internalType": "uint256",
          "name": "shares",
          "type": "uint256"
        }
      ],
      "name": "Deposit",
      "type": "event"
    },
    {
      "anonymous": false,
      "inputs": [
        {
          "indexed": true,
          "internalType": "address",
          "name": "user",
          "type": "address"
        },
        {
          "indexed": false,
          "internalType": "uint256",
          "name": "newFeePercent",
          "type": "uint256"
        }
      ],
      "name": "FeePercentUpdated",
      "type": "event"
    },
    {
      "anonymous": false,
      "inputs": [
        {
          "indexed": true,
          "internalType": "address",
          "name": "user",
          "type": "address"
        },
        {
          "indexed": false,
          "internalType": "uint256",
          "name": "rvTokenAmount",
          "type": "uint256"
        }
      ],
      "name": "FeesClaimed",
      "type": "event"
    },
    {
      "anonymous": false,
      "inputs": [
        {
          "indexed": false,
          "internalType": "uint256",
          "name": "chainId",
          "type": "uint256"
        },
        {
          "indexed": false,
          "internalType": "uint256",
          "name": "amount",
          "type": "uint256"
        }
      ],
      "name": "FundsSwapped",
      "type": "event"
    },
    {
      "anonymous": false,
      "inputs": [
        {
          "indexed": true,
          "internalType": "address",
          "name": "user",
          "type": "address"
        },
        {
          "indexed": false,
          "internalType": "contract Strategy[]",
          "name": "strategies",
          "type": "address[]"
        }
      ],
      "name": "Harvest",
      "type": "event"
    },
    {
      "anonymous": false,
      "inputs": [
        {
          "indexed": true,
          "internalType": "address",
          "name": "user",
          "type": "address"
        },
        {
          "indexed": false,
          "internalType": "uint64",
          "name": "newHarvestDelay",
          "type": "uint64"
        }
      ],
      "name": "HarvestDelayUpdateScheduled",
      "type": "event"
    },
    {
      "anonymous": false,
      "inputs": [
        {
          "indexed": true,
          "internalType": "address",
          "name": "user",
          "type": "address"
        },
        {
          "indexed": false,
          "internalType": "uint64",
          "name": "newHarvestDelay",
          "type": "uint64"
        }
      ],
      "name": "HarvestDelayUpdated",
      "type": "event"
    },
    {
      "anonymous": false,
      "inputs": [
        {
          "indexed": true,
          "internalType": "address",
          "name": "user",
          "type": "address"
        },
        {
          "indexed": false,
          "internalType": "uint128",
          "name": "newHarvestWindow",
          "type": "uint128"
        }
      ],
      "name": "HarvestWindowUpdated",
      "type": "event"
    },
    {
      "anonymous": false,
      "inputs": [
        {
          "indexed": true,
          "internalType": "address",
          "name": "user",
          "type": "address"
        }
      ],
      "name": "Initialized",
      "type": "event"
    },
    {
      "anonymous": false,
      "inputs": [
        {
          "indexed": false,
          "internalType": "address",
          "name": "_keeper",
          "type": "address"
        }
      ],
      "name": "KeeperUpdated",
      "type": "event"
    },
    {
      "anonymous": false,
      "inputs": [
        {
          "indexed": true,
          "internalType": "address",
          "name": "previousOwner",
          "type": "address"
        },
        {
          "indexed": true,
          "internalType": "address",
          "name": "newOwner",
          "type": "address"
        }
      ],
      "name": "OwnershipTransferred",
      "type": "event"
    },
    {
      "anonymous": false,
      "inputs": [],
      "name": "PendingWithdrawalsPayed",
      "type": "event"
    },
    {
      "anonymous": false,
      "inputs": [
        {
          "indexed": true,
          "internalType": "address",
          "name": "user",
          "type": "address"
        },
        {
          "indexed": true,
          "internalType": "contract Strategy",
          "name": "strategy",
          "type": "address"
        },
        {
          "indexed": false,
          "internalType": "uint256",
          "name": "underlyingAmount",
          "type": "uint256"
        }
      ],
      "name": "StrategyDeposit",
      "type": "event"
    },
    {
      "anonymous": false,
      "inputs": [
        {
          "indexed": true,
          "internalType": "address",
          "name": "user",
          "type": "address"
        },
        {
          "indexed": true,
          "internalType": "contract Strategy",
          "name": "strategy",
          "type": "address"
        }
      ],
      "name": "StrategyDistrusted",
      "type": "event"
    },
    {
      "anonymous": false,
      "inputs": [
        {
          "indexed": true,
          "internalType": "address",
          "name": "user",
          "type": "address"
        },
        {
          "indexed": true,
          "internalType": "contract Strategy",
          "name": "strategy",
          "type": "address"
        }
      ],
      "name": "StrategyTrusted",
      "type": "event"
    },
    {
      "anonymous": false,
      "inputs": [
        {
          "indexed": true,
          "internalType": "address",
          "name": "user",
          "type": "address"
        },
        {
          "indexed": true,
          "internalType": "contract Strategy",
          "name": "strategy",
          "type": "address"
        },
        {
          "indexed": false,
          "internalType": "uint256",
          "name": "underlyingAmount",
          "type": "uint256"
        }
      ],
      "name": "StrategyWithdrawal",
      "type": "event"
    },
    {
      "anonymous": false,
      "inputs": [
        {
          "indexed": true,
          "internalType": "address",
          "name": "user",
          "type": "address"
        },
        {
          "indexed": false,
          "internalType": "uint256",
          "name": "newTargetFloat",
          "type": "uint256"
        }
      ],
      "name": "TargetFloatUpdated",
      "type": "event"
    },
    {
      "anonymous": false,
      "inputs": [
        {
          "indexed": true,
          "internalType": "address",
          "name": "from",
          "type": "address"
        },
        {
          "indexed": true,
          "internalType": "address",
          "name": "to",
          "type": "address"
        },
        {
          "indexed": false,
          "internalType": "uint256",
          "name": "amount",
          "type": "uint256"
        }
      ],
      "name": "Transfer",
      "type": "event"
    },
    {
      "anonymous": false,
      "inputs": [
        {
          "indexed": false,
          "internalType": "uint256",
          "name": "newVirtualPrice",
          "type": "uint256"
        }
      ],
      "name": "VirtualPriceUpdated",
      "type": "event"
    },
    {
      "anonymous": false,
      "inputs": [
        {
          "indexed": true,
          "internalType": "address",
          "name": "caller",
          "type": "address"
        },
        {
          "indexed": true,
          "internalType": "address",
          "name": "receiver",
          "type": "address"
        },
        {
          "indexed": true,
          "internalType": "address",
          "name": "owner",
          "type": "address"
        },
        {
          "indexed": false,
          "internalType": "uint256",
          "name": "assets",
          "type": "uint256"
        },
        {
          "indexed": false,
          "internalType": "uint256",
          "name": "shares",
          "type": "uint256"
        }
      ],
      "name": "Withdraw",
      "type": "event"
    },
    {
      "anonymous": false,
      "inputs": [
        {
          "indexed": true,
          "internalType": "address",
          "name": "user",
          "type": "address"
        },
        {
          "indexed": false,
          "internalType": "uint256",
          "name": "index",
          "type": "uint256"
        },
        {
          "indexed": true,
          "internalType": "contract Strategy",
          "name": "replacedStrategy",
          "type": "address"
        },
        {
          "indexed": true,
          "internalType": "contract Strategy",
          "name": "replacementStrategy",
          "type": "address"
        }
      ],
      "name": "WithdrawalStackIndexReplaced",
      "type": "event"
    },
    {
      "anonymous": false,
      "inputs": [
        {
          "indexed": true,
          "internalType": "address",
          "name": "user",
          "type": "address"
        },
        {
          "indexed": false,
          "internalType": "uint256",
          "name": "index",
          "type": "uint256"
        },
        {
          "indexed": true,
          "internalType": "contract Strategy",
          "name": "replacedStrategy",
          "type": "address"
        },
        {
          "indexed": true,
          "internalType": "contract Strategy",
          "name": "previousTipStrategy",
          "type": "address"
        }
      ],
      "name": "WithdrawalStackIndexReplacedWithTip",
      "type": "event"
    },
    {
      "anonymous": false,
      "inputs": [
        {
          "indexed": true,
          "internalType": "address",
          "name": "user",
          "type": "address"
        },
        {
          "indexed": false,
          "internalType": "uint256",
          "name": "index1",
          "type": "uint256"
        },
        {
          "indexed": false,
          "internalType": "uint256",
          "name": "index2",
          "type": "uint256"
        },
        {
          "indexed": true,
          "internalType": "contract Strategy",
          "name": "newStrategy1",
          "type": "address"
        },
        {
          "indexed": true,
          "internalType": "contract Strategy",
          "name": "newStrategy2",
          "type": "address"
        }
      ],
      "name": "WithdrawalStackIndexesSwapped",
      "type": "event"
    },
    {
      "anonymous": false,
      "inputs": [
        {
          "indexed": true,
          "internalType": "address",
          "name": "user",
          "type": "address"
        },
        {
          "indexed": true,
          "internalType": "contract Strategy",
          "name": "poppedStrategy",
          "type": "address"
        }
      ],
      "name": "WithdrawalStackPopped",
      "type": "event"
    },
    {
      "anonymous": false,
      "inputs": [
        {
          "indexed": true,
          "internalType": "address",
          "name": "user",
          "type": "address"
        },
        {
          "indexed": true,
          "internalType": "contract Strategy",
          "name": "pushedStrategy",
          "type": "address"
        }
      ],
      "name": "WithdrawalStackPushed",
      "type": "event"
    },
    {
      "anonymous": false,
      "inputs": [
        {
          "indexed": true,
          "internalType": "address",
          "name": "user",
          "type": "address"
        },
        {
          "indexed": false,
          "internalType": "contract Strategy[]",
          "name": "replacedWithdrawalStack",
          "type": "address[]"
        }
      ],
      "name": "WithdrawalStackSet",
      "type": "event"
    },
    {
      "anonymous": false,
      "inputs": [
        {
          "indexed": false,
          "internalType": "uint16",
          "name": "_chainId",
          "type": "uint16"
        },
        {
          "indexed": false,
          "internalType": "bytes",
          "name": "_srcAddress",
          "type": "bytes"
        },
        {
          "indexed": false,
          "internalType": "address",
          "name": "_token",
          "type": "address"
        },
        {
          "indexed": false,
          "internalType": "uint256",
          "name": "amountLD",
          "type": "uint256"
        }
      ],
      "name": "sgReceived",
      "type": "event"
    },
    {
      "inputs": [],
      "name": "DOMAIN_SEPARATOR",
      "outputs": [
        {
          "internalType": "bytes32",
          "name": "",
          "type": "bytes32"
        }
      ],
      "stateMutability": "view",
      "type": "function"
    },
    {
      "inputs": [],
      "name": "PERMIT_TYPEHASH",
      "outputs": [
        {
          "internalType": "bytes32",
          "name": "",
          "type": "bytes32"
        }
      ],
      "stateMutability": "view",
      "type": "function"
    },
    {
      "inputs": [],
      "name": "UNDERLYING",
      "outputs": [
        {
          "internalType": "contract ERC20",
          "name": "",
          "type": "address"
        }
      ],
      "stateMutability": "view",
      "type": "function"
    },
    {
      "inputs": [],
      "name": "_totalSupply",
      "outputs": [
        {
          "internalType": "uint256",
          "name": "",
          "type": "uint256"
        }
      ],
      "stateMutability": "view",
      "type": "function"
    },
    {
      "inputs": [
        {
          "internalType": "address",
          "name": "",
          "type": "address"
        },
        {
          "internalType": "address",
          "name": "",
          "type": "address"
        }
      ],
      "name": "allowance",
      "outputs": [
        {
          "internalType": "uint256",
          "name": "",
          "type": "uint256"
        }
      ],
      "stateMutability": "view",
      "type": "function"
    },
    {
      "inputs": [
        {
          "internalType": "address",
          "name": "spender",
          "type": "address"
        },
        {
          "internalType": "uint256",
          "name": "amount",
          "type": "uint256"
        }
      ],
      "name": "approve",
      "outputs": [
        {
          "internalType": "bool",
          "name": "",
          "type": "bool"
        }
      ],
      "stateMutability": "nonpayable",
      "type": "function"
    },
    {
      "inputs": [],
      "name": "asset",
      "outputs": [
        {
          "internalType": "contract ERC20",
          "name": "",
          "type": "address"
        }
      ],
      "stateMutability": "view",
      "type": "function"
    },
    {
      "inputs": [
        {
          "internalType": "address",
          "name": "",
          "type": "address"
        }
      ],
      "name": "balanceOf",
      "outputs": [
        {
          "internalType": "uint256",
          "name": "",
          "type": "uint256"
        }
      ],
      "stateMutability": "view",
      "type": "function"
    },
    {
      "inputs": [
        {
          "internalType": "uint256",
          "name": "rvTokenAmount",
          "type": "uint256"
        }
      ],
      "name": "claimFees",
      "outputs": [],
      "stateMutability": "nonpayable",
      "type": "function"
    },
    {
      "inputs": [
        {
          "internalType": "uint256",
          "name": "shares",
          "type": "uint256"
        }
      ],
      "name": "convertToAssets",
      "outputs": [
        {
          "internalType": "uint256",
          "name": "",
          "type": "uint256"
        }
      ],
      "stateMutability": "view",
      "type": "function"
    },
    {
      "inputs": [
        {
          "internalType": "uint256",
          "name": "assets",
          "type": "uint256"
        }
      ],
      "name": "convertToShares",
      "outputs": [
        {
          "internalType": "uint256",
          "name": "",
          "type": "uint256"
        }
      ],
      "stateMutability": "view",
      "type": "function"
    },
    {
      "inputs": [],
      "name": "decimals",
      "outputs": [
        {
          "internalType": "uint8",
          "name": "",
          "type": "uint8"
        }
      ],
      "stateMutability": "view",
      "type": "function"
    },
    {
      "inputs": [
        {
          "internalType": "uint256",
          "name": "assets",
          "type": "uint256"
        },
        {
          "internalType": "address",
          "name": "receiver",
          "type": "address"
        }
      ],
      "name": "deposit",
      "outputs": [
        {
          "internalType": "uint256",
          "name": "shares",
          "type": "uint256"
        }
      ],
      "stateMutability": "nonpayable",
      "type": "function"
    },
    {
      "inputs": [
        {
          "internalType": "contract Strategy",
          "name": "strategy",
          "type": "address"
        },
        {
          "internalType": "uint256",
          "name": "underlyingAmount",
          "type": "uint256"
        }
      ],
      "name": "depositIntoStrategy",
      "outputs": [],
      "stateMutability": "nonpayable",
      "type": "function"
    },
    {
      "inputs": [],
      "name": "destroy",
      "outputs": [],
      "stateMutability": "nonpayable",
      "type": "function"
    },
    {
      "inputs": [
        {
          "internalType": "contract Strategy",
          "name": "strategy",
          "type": "address"
        }
      ],
      "name": "distrustStrategy",
      "outputs": [],
      "stateMutability": "nonpayable",
      "type": "function"
    },
    {
      "inputs": [],
      "name": "feePercent",
      "outputs": [
        {
          "internalType": "uint256",
          "name": "",
          "type": "uint256"
        }
      ],
      "stateMutability": "view",
      "type": "function"
    },
    {
      "inputs": [
        {
          "internalType": "contract Strategy",
          "name": "",
          "type": "address"
        }
      ],
      "name": "getStrategyData",
      "outputs": [
        {
          "internalType": "bool",
          "name": "trusted",
          "type": "bool"
        },
        {
          "internalType": "uint248",
          "name": "balance",
          "type": "uint248"
        }
      ],
      "stateMutability": "view",
      "type": "function"
    },
    {
      "inputs": [],
      "name": "getWithdrawalStack",
      "outputs": [
        {
          "internalType": "contract Strategy[]",
          "name": "",
          "type": "address[]"
        }
      ],
      "stateMutability": "view",
      "type": "function"
    },
    {
      "inputs": [],
      "name": "harvestDelay",
      "outputs": [
        {
          "internalType": "uint64",
          "name": "",
          "type": "uint64"
        }
      ],
      "stateMutability": "view",
      "type": "function"
    },
    {
      "inputs": [],
      "name": "harvestWindow",
      "outputs": [
        {
          "internalType": "uint128",
          "name": "",
          "type": "uint128"
        }
      ],
      "stateMutability": "view",
      "type": "function"
    },
    {
      "inputs": [],
      "name": "initialize",
      "outputs": [],
      "stateMutability": "nonpayable",
      "type": "function"
    },
    {
      "inputs": [],
      "name": "isInitialized",
      "outputs": [
        {
          "internalType": "bool",
          "name": "",
          "type": "bool"
        }
      ],
      "stateMutability": "view",
      "type": "function"
    },
    {
      "inputs": [],
      "name": "keeper",
      "outputs": [
        {
          "internalType": "address",
          "name": "",
          "type": "address"
        }
      ],
      "stateMutability": "view",
      "type": "function"
    },
    {
      "inputs": [],
      "name": "lastHarvest",
      "outputs": [
        {
          "internalType": "uint64",
          "name": "",
          "type": "uint64"
        }
      ],
      "stateMutability": "view",
      "type": "function"
    },
    {
      "inputs": [],
      "name": "lastHarvestWindowStart",
      "outputs": [
        {
          "internalType": "uint64",
          "name": "",
          "type": "uint64"
        }
      ],
      "stateMutability": "view",
      "type": "function"
    },
    {
      "inputs": [],
      "name": "lockedProfit",
      "outputs": [
        {
          "internalType": "uint256",
          "name": "",
          "type": "uint256"
        }
      ],
      "stateMutability": "view",
      "type": "function"
    },
    {
      "inputs": [
        {
          "internalType": "address",
          "name": "",
          "type": "address"
        }
      ],
      "name": "maxDeposit",
      "outputs": [
        {
          "internalType": "uint256",
          "name": "",
          "type": "uint256"
        }
      ],
      "stateMutability": "view",
      "type": "function"
    },
    {
      "inputs": [],
      "name": "maxLockedProfit",
      "outputs": [
        {
          "internalType": "uint128",
          "name": "",
          "type": "uint128"
        }
      ],
      "stateMutability": "view",
      "type": "function"
    },
    {
      "inputs": [
        {
          "internalType": "address",
          "name": "",
          "type": "address"
        }
      ],
      "name": "maxMint",
      "outputs": [
        {
          "internalType": "uint256",
          "name": "",
          "type": "uint256"
        }
      ],
      "stateMutability": "view",
      "type": "function"
    },
    {
      "inputs": [
        {
          "internalType": "address",
          "name": "owner",
          "type": "address"
        }
      ],
      "name": "maxRedeem",
      "outputs": [
        {
          "internalType": "uint256",
          "name": "",
          "type": "uint256"
        }
      ],
      "stateMutability": "view",
      "type": "function"
    },
    {
      "inputs": [
        {
          "internalType": "address",
          "name": "owner",
          "type": "address"
        }
      ],
      "name": "maxWithdraw",
      "outputs": [
        {
          "internalType": "uint256",
          "name": "",
          "type": "uint256"
        }
      ],
      "stateMutability": "view",
      "type": "function"
    },
    {
      "inputs": [
        {
          "internalType": "uint256",
          "name": "shares",
          "type": "uint256"
        },
        {
          "internalType": "address",
          "name": "receiver",
          "type": "address"
        }
      ],
      "name": "mint",
      "outputs": [
        {
          "internalType": "uint256",
          "name": "assets",
          "type": "uint256"
        }
      ],
      "stateMutability": "nonpayable",
      "type": "function"
    },
    {
      "inputs": [],
      "name": "name",
      "outputs": [
        {
          "internalType": "string",
          "name": "",
          "type": "string"
        }
      ],
      "stateMutability": "view",
      "type": "function"
    },
    {
      "inputs": [],
      "name": "nextHarvestDelay",
      "outputs": [
        {
          "internalType": "uint64",
          "name": "",
          "type": "uint64"
        }
      ],
      "stateMutability": "view",
      "type": "function"
    },
    {
      "inputs": [
        {
          "internalType": "address",
          "name": "",
          "type": "address"
        }
      ],
      "name": "nonces",
      "outputs": [
        {
          "internalType": "uint256",
          "name": "",
          "type": "uint256"
        }
      ],
      "stateMutability": "view",
      "type": "function"
    },
    {
      "inputs": [],
      "name": "otherVaultsHoldings",
      "outputs": [
        {
          "internalType": "uint256",
          "name": "",
          "type": "uint256"
        }
      ],
      "stateMutability": "view",
      "type": "function"
    },
    {
      "inputs": [],
      "name": "otherVaultsSupply",
      "outputs": [
        {
          "internalType": "uint256",
          "name": "",
          "type": "uint256"
        }
      ],
      "stateMutability": "view",
      "type": "function"
    },
    {
      "inputs": [],
      "name": "owner",
      "outputs": [
        {
          "internalType": "address",
          "name": "",
          "type": "address"
        }
      ],
      "stateMutability": "view",
      "type": "function"
    },
    {
      "inputs": [
        {
          "internalType": "address",
          "name": "owner",
          "type": "address"
        },
        {
          "internalType": "address",
          "name": "spender",
          "type": "address"
        },
        {
          "internalType": "uint256",
          "name": "value",
          "type": "uint256"
        },
        {
          "internalType": "uint256",
          "name": "deadline",
          "type": "uint256"
        },
        {
          "internalType": "uint8",
          "name": "v",
          "type": "uint8"
        },
        {
          "internalType": "bytes32",
          "name": "r",
          "type": "bytes32"
        },
        {
          "internalType": "bytes32",
          "name": "s",
          "type": "bytes32"
        }
      ],
      "name": "permit",
      "outputs": [],
      "stateMutability": "nonpayable",
      "type": "function"
    },
    {
      "inputs": [],
      "name": "popFromWithdrawalStack",
      "outputs": [],
      "stateMutability": "nonpayable",
      "type": "function"
    },
    {
      "inputs": [
        {
          "internalType": "uint256",
          "name": "assets",
          "type": "uint256"
        }
      ],
      "name": "previewDeposit",
      "outputs": [
        {
          "internalType": "uint256",
          "name": "",
          "type": "uint256"
        }
      ],
      "stateMutability": "view",
      "type": "function"
    },
    {
      "inputs": [
        {
          "internalType": "uint256",
          "name": "shares",
          "type": "uint256"
        }
      ],
      "name": "previewMint",
      "outputs": [
        {
          "internalType": "uint256",
          "name": "",
          "type": "uint256"
        }
      ],
      "stateMutability": "view",
      "type": "function"
    },
    {
      "inputs": [
        {
          "internalType": "uint256",
          "name": "shares",
          "type": "uint256"
        }
      ],
      "name": "previewRedeem",
      "outputs": [
        {
          "internalType": "uint256",
          "name": "",
          "type": "uint256"
        }
      ],
      "stateMutability": "view",
      "type": "function"
    },
    {
      "inputs": [
        {
          "internalType": "uint256",
          "name": "assets",
          "type": "uint256"
        }
      ],
      "name": "previewWithdraw",
      "outputs": [
        {
          "internalType": "uint256",
          "name": "",
          "type": "uint256"
        }
      ],
      "stateMutability": "view",
      "type": "function"
    },
    {
      "inputs": [
        {
          "internalType": "contract Strategy",
          "name": "strategy",
          "type": "address"
        }
      ],
      "name": "pushToWithdrawalStack",
      "outputs": [],
      "stateMutability": "nonpayable",
      "type": "function"
    },
    {
      "inputs": [
        {
          "internalType": "uint256",
          "name": "shares",
          "type": "uint256"
        },
        {
          "internalType": "address",
          "name": "receiver",
          "type": "address"
        },
        {
          "internalType": "address",
          "name": "owner",
          "type": "address"
        }
      ],
      "name": "redeem",
      "outputs": [
        {
          "internalType": "uint256",
          "name": "assets",
          "type": "uint256"
        }
      ],
      "stateMutability": "nonpayable",
      "type": "function"
    },
    {
      "inputs": [],
      "name": "renounceOwnership",
      "outputs": [],
      "stateMutability": "nonpayable",
      "type": "function"
    },
    {
      "inputs": [
        {
          "internalType": "uint256",
          "name": "index",
          "type": "uint256"
        },
        {
          "internalType": "contract Strategy",
          "name": "replacementStrategy",
          "type": "address"
        }
      ],
      "name": "replaceWithdrawalStackIndex",
      "outputs": [],
      "stateMutability": "nonpayable",
      "type": "function"
    },
    {
      "inputs": [
        {
          "internalType": "uint256",
          "name": "index",
          "type": "uint256"
        }
      ],
      "name": "replaceWithdrawalStackIndexWithTip",
      "outputs": [],
      "stateMutability": "nonpayable",
      "type": "function"
    },
    {
      "inputs": [
        {
          "internalType": "uint256",
          "name": "toWithdraw",
          "type": "uint256"
        },
        {
          "internalType": "uint256",
          "name": "toDeposit",
          "type": "uint256"
        },
        {
          "internalType": "uint256",
          "name": "newFloat",
          "type": "uint256"
        }
      ],
      "name": "runHarvest",
      "outputs": [],
      "stateMutability": "nonpayable",
      "type": "function"
    },
    {
      "inputs": [
        {
          "internalType": "address",
          "name": "_bridgerton",
          "type": "address"
        }
      ],
      "name": "setBridgerton",
      "outputs": [],
      "stateMutability": "nonpayable",
      "type": "function"
    },
    {
      "inputs": [
        {
          "internalType": "uint256",
          "name": "newFeePercent",
          "type": "uint256"
        }
      ],
      "name": "setFeePercent",
      "outputs": [],
      "stateMutability": "nonpayable",
      "type": "function"
    },
    {
      "inputs": [
        {
          "internalType": "uint64",
          "name": "newHarvestDelay",
          "type": "uint64"
        }
      ],
      "name": "setHarvestDelay",
      "outputs": [],
      "stateMutability": "nonpayable",
      "type": "function"
    },
    {
      "inputs": [
        {
          "internalType": "uint128",
          "name": "newHarvestWindow",
          "type": "uint128"
        }
      ],
      "name": "setHarvestWindow",
      "outputs": [],
      "stateMutability": "nonpayable",
      "type": "function"
    },
    {
      "inputs": [
        {
          "internalType": "address",
          "name": "_newKeeper",
          "type": "address"
        }
      ],
      "name": "setNewKeeper",
      "outputs": [],
      "stateMutability": "nonpayable",
      "type": "function"
    },
    {
      "inputs": [
        {
          "internalType": "uint256",
          "name": "newTargetFloat",
          "type": "uint256"
        }
      ],
      "name": "setTargetFloat",
      "outputs": [],
      "stateMutability": "nonpayable",
      "type": "function"
    },
    {
      "inputs": [
        {
          "internalType": "contract Strategy[]",
          "name": "newStack",
          "type": "address[]"
        }
      ],
      "name": "setWithdrawalStack",
      "outputs": [],
      "stateMutability": "nonpayable",
      "type": "function"
    },
    {
      "inputs": [
        {
          "internalType": "uint16",
          "name": "_chainId",
          "type": "uint16"
        },
        {
          "internalType": "bytes",
          "name": "_srcAddress",
          "type": "bytes"
        },
        {
          "internalType": "uint256",
          "name": "_nonce",
          "type": "uint256"
        },
        {
          "internalType": "address",
          "name": "_token",
          "type": "address"
        },
        {
          "internalType": "uint256",
          "name": "amountLD",
          "type": "uint256"
        },
        {
          "internalType": "bytes",
          "name": "payload",
          "type": "bytes"
        }
      ],
      "name": "sgReceive",
      "outputs": [],
      "stateMutability": "nonpayable",
      "type": "function"
    },
    {
      "inputs": [
        {
          "internalType": "address",
          "name": "",
          "type": "address"
        }
      ],
      "name": "sharesPending",
      "outputs": [
        {
          "internalType": "uint256",
          "name": "",
          "type": "uint256"
        }
      ],
      "stateMutability": "view",
      "type": "function"
    },
    {
      "inputs": [
        {
          "internalType": "uint16",
          "name": "chainId",
          "type": "uint16"
        },
        {
          "internalType": "uint256",
          "name": "_amount",
          "type": "uint256"
        },
        {
          "internalType": "address",
          "name": "_vaultTo",
          "type": "address"
        }
      ],
      "name": "swap",
      "outputs": [],
      "stateMutability": "payable",
      "type": "function"
    },
    {
      "inputs": [
        {
          "internalType": "uint256",
          "name": "index1",
          "type": "uint256"
        },
        {
          "internalType": "uint256",
          "name": "index2",
          "type": "uint256"
        }
      ],
      "name": "swapWithdrawalStackIndexes",
      "outputs": [],
      "stateMutability": "nonpayable",
      "type": "function"
    },
    {
      "inputs": [],
      "name": "symbol",
      "outputs": [
        {
          "internalType": "string",
          "name": "",
          "type": "string"
        }
      ],
      "stateMutability": "view",
      "type": "function"
    },
    {
      "inputs": [],
      "name": "targetFloat",
      "outputs": [
        {
          "internalType": "uint256",
          "name": "",
          "type": "uint256"
        }
      ],
      "stateMutability": "view",
      "type": "function"
    },
    {
      "inputs": [],
      "name": "thisVaultsHoldings",
      "outputs": [
        {
          "internalType": "uint256",
          "name": "underlyingHeld",
          "type": "uint256"
        }
      ],
      "stateMutability": "view",
      "type": "function"
    },
    {
      "inputs": [],
      "name": "thisVaultsSupply",
      "outputs": [
        {
          "internalType": "uint256",
          "name": "",
          "type": "uint256"
        }
      ],
      "stateMutability": "view",
      "type": "function"
    },
    {
      "inputs": [],
      "name": "totalAssets",
      "outputs": [
        {
          "internalType": "uint256",
          "name": "",
          "type": "uint256"
        }
      ],
      "stateMutability": "view",
      "type": "function"
    },
    {
      "inputs": [],
      "name": "totalFloat",
      "outputs": [
        {
          "internalType": "uint256",
          "name": "",
          "type": "uint256"
        }
      ],
      "stateMutability": "view",
      "type": "function"
    },
    {
      "inputs": [],
      "name": "totalStrategyHoldings",
      "outputs": [
        {
          "internalType": "uint256",
          "name": "",
          "type": "uint256"
        }
      ],
      "stateMutability": "view",
      "type": "function"
    },
    {
      "inputs": [],
      "name": "totalSupply",
      "outputs": [
        {
          "internalType": "uint256",
          "name": "",
          "type": "uint256"
        }
      ],
      "stateMutability": "view",
      "type": "function"
    },
    {
      "inputs": [
        {
          "internalType": "address",
          "name": "owner",
          "type": "address"
        }
      ],
      "name": "totalUserBalance",
      "outputs": [
        {
          "internalType": "uint256",
          "name": "",
          "type": "uint256"
        }
      ],
      "stateMutability": "view",
      "type": "function"
    },
    {
      "inputs": [
        {
          "internalType": "address",
          "name": "to",
          "type": "address"
        },
        {
          "internalType": "uint256",
          "name": "amount",
          "type": "uint256"
        }
      ],
      "name": "transfer",
      "outputs": [
        {
          "internalType": "bool",
          "name": "",
          "type": "bool"
        }
      ],
      "stateMutability": "nonpayable",
      "type": "function"
    },
    {
      "inputs": [
        {
          "internalType": "address",
          "name": "from",
          "type": "address"
        },
        {
          "internalType": "address",
          "name": "to",
          "type": "address"
        },
        {
          "internalType": "uint256",
          "name": "amount",
          "type": "uint256"
        }
      ],
      "name": "transferFrom",
      "outputs": [
        {
          "internalType": "bool",
          "name": "",
          "type": "bool"
        }
      ],
      "stateMutability": "nonpayable",
      "type": "function"
    },
    {
      "inputs": [
        {
          "internalType": "address",
          "name": "newOwner",
          "type": "address"
        }
      ],
      "name": "transferOwnership",
      "outputs": [],
      "stateMutability": "nonpayable",
      "type": "function"
    },
    {
      "inputs": [
        {
          "internalType": "contract Strategy",
          "name": "strategy",
          "type": "address"
        }
      ],
      "name": "trustStrategy",
      "outputs": [],
      "stateMutability": "nonpayable",
      "type": "function"
    },
    {
      "inputs": [
        {
          "internalType": "uint256",
          "name": "_virtualPrice",
          "type": "uint256"
        }
      ],
      "name": "updateVirtualPrice",
      "outputs": [],
      "stateMutability": "nonpayable",
      "type": "function"
    },
    {
      "inputs": [],
      "name": "virtualPrice",
      "outputs": [
        {
          "internalType": "uint256",
          "name": "",
          "type": "uint256"
        }
      ],
      "stateMutability": "view",
      "type": "function"
    },
    {
      "inputs": [
        {
          "internalType": "uint256",
          "name": "assets",
          "type": "uint256"
        },
        {
          "internalType": "address",
          "name": "receiver",
          "type": "address"
        },
        {
          "internalType": "address",
          "name": "owner",
          "type": "address"
        }
      ],
      "name": "withdraw",
      "outputs": [
        {
          "internalType": "uint256",
          "name": "shares",
          "type": "uint256"
        }
      ],
      "stateMutability": "nonpayable",
      "type": "function"
    },
    {
      "inputs": [
        {
          "internalType": "contract Strategy",
          "name": "strategy",
          "type": "address"
        },
        {
          "internalType": "uint256",
          "name": "underlyingAmount",
          "type": "uint256"
        }
      ],
      "name": "withdrawFromStrategy",
      "outputs": [],
      "stateMutability": "nonpayable",
      "type": "function"
    },
    {
      "inputs": [
        {
          "internalType": "uint256",
          "name": "",
          "type": "uint256"
        }
      ],
      "name": "withdrawalStack",
      "outputs": [
        {
          "internalType": "contract Strategy",
          "name": "",
          "type": "address"
        }
      ],
      "stateMutability": "view",
      "type": "function"
    },
    {
      "stateMutability": "payable",
      "type": "receive"
    }
  ],
  "bytecode": "0x6101406040523480156200001257600080fd5b50604051620053973803806200539783398101604081905262000035916200041b565b81826001600160a01b03166306fdde036040518163ffffffff1660e01b8152600401600060405180830381865afa15801562000075573d6000803e3d6000fd5b505050506040513d6000823e601f3d908101601f191682016040526200009f9190810190620004a3565b604051602001620000b191906200055b565b604051602081830303815290604052836001600160a01b03166395d89b416040518163ffffffff1660e01b8152600401600060405180830381865afa158015620000ff573d6000803e3d6000fd5b505050506040513d6000823e601f3d908101601f19168201604052620001299190810190620004a3565b6040516020016200013b91906200059b565b6040516020818303038152906040528181846001600160a01b031663313ce5676040518163ffffffff1660e01b8152600401602060405180830381865afa1580156200018b573d6000803e3d6000fd5b505050506040513d601f19601f82011682018060405250810190620001b19190620005c7565b8251620001c69060009060208601906200035c565b508151620001dc9060019060208501906200035c565b5060ff81166080524660a052620001f26200026e565b60c052505060016006555050506001600160a01b031660e05262000216336200030a565b6001600160a01b038216610100526080516200023490600a62000708565b61012052601480546001600160a01b039092166001600160a01b0319928316179055600e80549091163317905550600019600255620007fa565b60007f8b73c3c69bb8fe3d512ecc4cf759cc79239f7b179b0ffacaa9a75d522b39400f6000604051620002a2919062000756565b6040805191829003822060208301939093528101919091527fc89efdaa54c0f20c7adf612882df0950f5a951637e0307cdcb4c672f298b8bc660608201524660808201523060a082015260c00160405160208183030381529060405280519060200120905090565b600b80546001600160a01b038381166001600160a01b0319831681179093556040519116919082907f8be0079c531659141344cd1fd0a4f28419497f9722a3daafe3b4186f6b6457e090600090a35050565b8280546200036a9062000719565b90600052602060002090601f0160209004810192826200038e5760008555620003d9565b82601f10620003a957805160ff1916838001178555620003d9565b82800160010185558215620003d9579182015b82811115620003d9578251825591602001919060010190620003bc565b50620003e7929150620003eb565b5090565b5b80821115620003e75760008155600101620003ec565b6001600160a01b03811681146200041857600080fd5b50565b600080604083850312156200042f57600080fd5b82516200043c8162000402565b60208401519092506200044f8162000402565b809150509250929050565b634e487b7160e01b600052604160045260246000fd5b60005b838110156200048d57818101518382015260200162000473565b838111156200049d576000848401525b50505050565b600060208284031215620004b657600080fd5b81516001600160401b0380821115620004ce57600080fd5b818401915084601f830112620004e357600080fd5b815181811115620004f857620004f86200045a565b604051601f8201601f19908116603f011681019083821181831017156200052357620005236200045a565b816040528281528760208487010111156200053d57600080fd5b6200055083602083016020880162000470565b979650505050505050565b65029b0bb37b9160d51b8152600082516200057e81600685016020870162000470565b650815985d5b1d60d21b6006939091019283015250600c01919050565b6139bb60f11b815260008251620005ba81600285016020870162000470565b9190910160020192915050565b600060208284031215620005da57600080fd5b815160ff81168114620005ec57600080fd5b9392505050565b634e487b7160e01b600052601160045260246000fd5b600181815b808511156200064a5781600019048211156200062e576200062e620005f3565b808516156200063c57918102915b93841c93908002906200060e565b509250929050565b600082620006635750600162000702565b81620006725750600062000702565b81600181146200068b57600281146200069657620006b6565b600191505062000702565b60ff841115620006aa57620006aa620005f3565b50506001821b62000702565b5060208310610133831016604e8410600b8410161715620006db575081810a62000702565b620006e7838362000609565b8060001904821115620006fe57620006fe620005f3565b0290505b92915050565b6000620005ec60ff84168362000652565b600181811c908216806200072e57607f821691505b602082108114156200075057634e487b7160e01b600052602260045260246000fd5b50919050565b600080835481600182811c9150808316806200077357607f831692505b60208084108214156200079457634e487b7160e01b86526022600452602486fd5b818015620007ab5760018114620007bd57620007ec565b60ff19861689528489019650620007ec565b60008a81526020902060005b86811015620007e45781548b820152908501908301620007c9565b505084890196505b509498975050505050505050565b60805160a05160c05160e0516101005161012051614aeb620008ac60003960008181613a470152613a6b015260008181610c8c015281816111a501528181611277015281816112c4015281816120b701528181612aa40152818161307c01528181613c4d0152613d2b0152600081816107e501528181611c96015281816121a30152818161251c01528181612555015261295e0152600061195d0152600061192d015260006107480152614aeb6000f3fe6080604052600436106104775760003560e01c80637ecebe001161024a578063c55eb5d911610139578063dd62ed3e116100b6578063ef8b30f71161007a578063ef8b30f714610e71578063f1a392da14610e91578063f2fde38b14610eb8578063f97d2ed714610ed8578063fad85a731461099f57600080fd5b8063dd62ed3e14610dc3578063ec523afd14610dfb578063ecad956514610e1b578063ed2c552114610e31578063eed74e6714610e5157600080fd5b8063ce96cb77116100fd578063ce96cb7714610cee578063d00364be14610d0e578063d164cc1514610d4d578063d505accf14610d6d578063d905777e14610d8d57600080fd5b8063c55eb5d914610c5a578063c5d664c614610c7a578063c63d75b61461083d578063c6e6f59214610cae578063c866983b14610cce57600080fd5b806395d89b41116101c7578063b3d7f6b91161018b578063b3d7f6b914610bba578063b460af9414610bda578063b53d095814610bfa578063ba08765214610c1a578063bdf06c8e14610c3a57600080fd5b806395d89b4114610b25578063a9059cbb14610b3a578063ab8236f314610b5a578063ac68a74814610b7a578063aced166114610b9a57600080fd5b8063841219e51161020e578063841219e514610a9c5780638d32ef8414610ab15780638da5cb5b14610ad15780638ea875f314610aef57806394bf804d14610b0557600080fd5b80637ecebe0014610a1a5780637fcb405e14610a475780637fd6f15c14610a5c5780638129fc1c14610a7257806383197ef014610a8757600080fd5b80633444a63a116103665780635f591c09116102e3578063715018a6116102a7578063715018a61461098a57806372d879bc1461099f578063797ba463146109b35780637b72aeb9146109da5780637ce3489b146109fa57600080fd5b80635f591c09146108f357806360dc8fac1461091357806369f53f11146109285780636e553f651461093d57806370a082311461095d57600080fd5b8063402d267d1161032a578063402d267d1461083d578063448f56b91461085f57806344b813961461089e5780634a3c3990146108b35780634cdad506146108d357600080fd5b80633444a63a1461079e5780633644e515146107be57806338d52e0f146107d3578063392e53cd146108075780633eaaf86b1461082857600080fd5b806318160ddd116103f45780632968676e116103b85780632968676e146106765780632e2cbbf9146106d557806330adf81f14610702578063313ce5671461073657806334051c031461077c57600080fd5b806318160ddd146105e057806320cb5aa6146105f6578063231527451461061657806323b872dd146106365780632493fea61461065657600080fd5b80630a28a4771161043b5780630a28a4771461053f5780630c72d1031461055f578063136a8ce71461057557806313ff8551146105ad57806316e5440a146105c057600080fd5b806301e1d1141461048357806306fdde03146104ab57806307a2d13a146104cd57806307b35d1d146104ed578063095ea7b31461050f57600080fd5b3661047e57005b600080fd5b34801561048f57600080fd5b50610498610ef8565b6040519081526020015b60405180910390f35b3480156104b757600080fd5b506104c0610f07565b6040516104a2919061421c565b3480156104d957600080fd5b506104986104e836600461422f565b610f95565b3480156104f957600080fd5b5061050d610508366004614248565b610fb2565b005b34801561051b57600080fd5b5061052f61052a366004614286565b6110a2565b60405190151581526020016104a2565b34801561054b57600080fd5b5061049861055a36600461422f565b61110e565b34801561056b57600080fd5b50610498600f5481565b34801561058157600080fd5b5061059561059036600461422f565b611125565b6040516001600160a01b0390911681526020016104a2565b61050d6105bb3660046142c9565b61114f565b3480156105cc57600080fd5b5061050d6105db36600461422f565b6113de565b3480156105ec57600080fd5b5061049860025481565b34801561060257600080fd5b50610498610611366004614309565b61153a565b34801561062257600080fd5b5061050d610631366004614326565b611568565b34801561064257600080fd5b5061052f61065136600461439a565b611627565b34801561066257600080fd5b5061050d6106713660046143db565b611707565b34801561068257600080fd5b506106b6610691366004614309565b60116020526000908152604090205460ff81169061010090046001600160f81b031682565b6040805192151583526001600160f81b039091166020830152016104a2565b3480156106e157600080fd5b506104986106f0366004614309565b60076020526000908152604090205481565b34801561070e57600080fd5b506104987f6e71edae12b1b97f4d1f60370fef10105fa2faae0126114a169c64845d6126c981565b34801561074257600080fd5b5061076a7f000000000000000000000000000000000000000000000000000000000000000081565b60405160ff90911681526020016104a2565b34801561078857600080fd5b50610791611851565b6040516104a291906143fd565b3480156107aa57600080fd5b5061050d6107b936600461422f565b6118b3565b3480156107ca57600080fd5b50610498611929565b3480156107df57600080fd5b506105957f000000000000000000000000000000000000000000000000000000000000000081565b34801561081357600080fd5b5060145461052f90600160a01b900460ff1681565b34801561083457600080fd5b5061049861197f565b34801561084957600080fd5b50610498610858366004614309565b5060001990565b34801561086b57600080fd5b50600d5461088690600160801b90046001600160401b031681565b6040516001600160401b0390911681526020016104a2565b3480156108aa57600080fd5b50610498611989565b3480156108bf57600080fd5b5061050d6108ce366004614309565b6119f0565b3480156108df57600080fd5b506104986108ee36600461422f565b611ad4565b3480156108ff57600080fd5b5061050d61090e36600461422f565b611adf565b34801561091f57600080fd5b5061050d611b5a565b34801561093457600080fd5b50610498611c2f565b34801561094957600080fd5b5061049861095836600461444a565b611c41565b34801561096957600080fd5b50610498610978366004614309565b60036020526000908152604090205481565b34801561099657600080fd5b5061050d611d14565b3480156109ab57600080fd5b506000610498565b3480156109bf57600080fd5b50600d5461088690600160c01b90046001600160401b031681565b3480156109e657600080fd5b5061050d6109f536600461447a565b611d4a565b348015610a0657600080fd5b5061050d610a1536600461422f565b611ede565b348015610a2657600080fd5b50610498610a35366004614309565b60056020526000908152604090205481565b348015610a5357600080fd5b50610498611f86565b348015610a6857600080fd5b50610498600c5481565b348015610a7e57600080fd5b5061050d611fa8565b348015610a9357600080fd5b5061050d612072565b348015610aa857600080fd5b5061049861209f565b348015610abd57600080fd5b5061050d610acc366004614309565b61212a565b348015610add57600080fd5b50600b546001600160a01b0316610595565b348015610afb57600080fd5b50610498600a5481565b348015610b1157600080fd5b50610498610b2036600461444a565b612189565b348015610b3157600080fd5b506104c0612218565b348015610b4657600080fd5b5061052f610b55366004614286565b612225565b348015610b6657600080fd5b5061050d610b75366004614545565b61228b565b348015610b8657600080fd5b5061050d610b9536600461422f565b6122d0565b348015610ba657600080fd5b50600e54610595906001600160a01b031681565b348015610bc657600080fd5b50610498610bd536600461422f565b61233a565b348015610be657600080fd5b50610498610bf53660046145df565b612351565b348015610c0657600080fd5b5061050d610c15366004614286565b61258a565b348015610c2657600080fd5b50610498610c353660046145df565b612758565b348015610c4657600080fd5b5061050d610c55366004614286565b612985565b348015610c6657600080fd5b5061050d610c75366004614616565b612b74565b348015610c8657600080fd5b506105957f000000000000000000000000000000000000000000000000000000000000000081565b348015610cba57600080fd5b50610498610cc936600461422f565b612c7d565b348015610cda57600080fd5b5061050d610ce9366004614309565b612c94565b348015610cfa57600080fd5b50610498610d09366004614309565b612d08565b348015610d1a57600080fd5b50601254610d3590600160801b90046001600160801b031681565b6040516001600160801b0390911681526020016104a2565b348015610d5957600080fd5b5061050d610d68366004614309565b612d2a565b348015610d7957600080fd5b5061050d610d88366004614642565b612dff565b348015610d9957600080fd5b50610498610da8366004614309565b6001600160a01b031660009081526003602052604090205490565b348015610dcf57600080fd5b50610498610dde3660046146b9565b600460209081526000928352604080842090915290825290205481565b348015610e0757600080fd5b5061050d610e16366004614309565b613050565b348015610e2757600080fd5b5061049860105481565b348015610e3d57600080fd5b5061050d610e4c36600461444a565b61319c565b348015610e5d57600080fd5b50601254610886906001600160401b031681565b348015610e7d57600080fd5b50610498610e8c36600461422f565b613267565b348015610e9d57600080fd5b5060125461088690600160401b90046001600160401b031681565b348015610ec457600080fd5b5061050d610ed3366004614309565b613272565b348015610ee457600080fd5b50600d54610d35906001600160801b031681565b6000610f02611f86565b905090565b60008054610f14906146e7565b80601f0160208091040260200160405190810160405280929190818152602001828054610f40906146e7565b8015610f8d5780601f10610f6257610100808354040283529160200191610f8d565b820191906000526020600020905b815481529060010190602001808311610f7057829003601f168201915b505050505081565b6000610fac600a548361330a90919063ffffffff16565b92915050565b600b546001600160a01b03163314610fe55760405162461bcd60e51b8152600401610fdc90614722565b60405180910390fd5b600d54600160801b90046001600160401b03166001600160801b03821611156110425760405162461bcd60e51b815260206004820152600f60248201526e57494e444f575f544f4f5f4c4f4e4760881b6044820152606401610fdc565b600d80546fffffffffffffffffffffffffffffffff19166001600160801b03831690811790915560405190815233907ff61ebd3c01f656aba479c738a8744215d6f1ec2c19169500f3bff0a9d8374ce1906020015b60405180910390a250565b3360008181526004602090815260408083206001600160a01b038716808552925280832085905551919290917f8c5be1e5ebec7d5bd14f71427d1e84f3dd0314c0f7b2291e5b200ac8c7c3b925906110fd9086815260200190565b60405180910390a350600192915050565b6000610fac600a548361332690919063ffffffff16565b6013818154811061113557600080fd5b6000918252602090912001546001600160a01b0316905081565b600b546001600160a01b03163314806111725750600e546001600160a01b031633145b61118e5760405162461bcd60e51b8152600401610fdc90614757565b6040516370a0823160e01b815230600482015282907f00000000000000000000000000000000000000000000000000000000000000006001600160a01b0316906370a0823190602401602060405180830381865afa1580156111f4573d6000803e3d6000fd5b505050506040513d601f19601f82011682018060405250810190611218919061477d565b10156112665760405162461bcd60e51b815260206004820152601e60248201527f4e6f7420656e6f7567682066756e647320666f722074686174207377617000006044820152606401610fdc565b6014546112a0906001600160a01b037f0000000000000000000000000000000000000000000000000000000000000000811691168461333b565b60145460405163edd36beb60e01b815261ffff851660048201526001600160a01b037f000000000000000000000000000000000000000000000000000000000000000081166024830152604482018590528381166064830152600092169063edd36beb90479060840160206040518083038185885af1158015611327573d6000803e3d6000fd5b50505050506040513d601f19601f8201168201806040525081019061134c9190614796565b90508061139b5760405162461bcd60e51b815260206004820152601e60248201527f5472616e73616374696f6e20646964206e6f7420676f207468726f75676800006044820152606401610fdc565b6040805161ffff86168152602081018590527f08be281ae05f5bcb436568a8f5666845107bc18afff00f70d0cf190a5f124129910160405180910390a150505050565b600b546001600160a01b031633146114085760405162461bcd60e51b8152600401610fdc90614722565b601380546000919061141c906001906147ce565b8154811061142c5761142c6147e5565b6000918252602082200154601380546001600160a01b0390921693509084908110611459576114596147e5565b600091825260209091200154601380546001600160a01b039092169250839185908110611488576114886147e5565b9060005260206000200160006101000a8154816001600160a01b0302191690836001600160a01b0316021790555060138054806114c7576114c76147fb565b600082815260209020810160001990810180546001600160a01b03191690550190556040516001600160a01b03838116919083169033907f473192fe0c9f1496de6fb6e5c8d6ad88651b595d4e00ff84da3824c86bd8fc0c9061152d9088815260200190565b60405180910390a4505050565b6001600160a01b0381166000908152600760209081526040808320546003909252822054610fac9190614811565b600b546001600160a01b031633146115925760405162461bcd60e51b8152600401610fdc90614722565b60208111156115d35760405162461bcd60e51b815260206004820152600d60248201526c535441434b5f544f4f5f42494760981b6044820152606401610fdc565b6115df60138383614141565b50336001600160a01b03167ff110ec6f3f76ff60fb27d301a8a5d810ca482392df21dc15cdb1492922b8b0b3838360405161161b929190614829565b60405180910390a25050565b6001600160a01b038316600090815260046020908152604080832033845290915281205460001981146116835761165e83826147ce565b6001600160a01b03861660009081526004602090815260408083203384529091529020555b6001600160a01b038516600090815260036020526040812080548592906116ab9084906147ce565b90915550506001600160a01b0380851660008181526003602052604090819020805487019055519091871690600080516020614a96833981519152906116f49087815260200190565b60405180910390a3506001949350505050565b600b546001600160a01b031633146117315760405162461bcd60e51b8152600401610fdc90614722565b600060138381548110611746576117466147e5565b6000918252602082200154601380546001600160a01b0390921693509084908110611773576117736147e5565b600091825260209091200154601380546001600160a01b0390921692508291869081106117a2576117a26147e5565b9060005260206000200160006101000a8154816001600160a01b0302191690836001600160a01b0316021790555081601384815481106117e4576117e46147e5565b60009182526020918290200180546001600160a01b0319166001600160a01b03938416179055604080518781529182018690528483169284169133917f5d605201cae91441cf473a96f9217ad688f1ee9d42c1cfb6ed1be9fb50576c30910160405180910390a450505050565b606060138054806020026020016040519081016040528092919081815260200182805480156118a957602002820191906000526020600020905b81546001600160a01b0316815260019091019060200180831161188b575b5050505050905090565b600b546001600160a01b03163314806118d65750600e546001600160a01b031633145b6118f25760405162461bcd60e51b8152600401610fdc90614757565b600f81905560405181815233907f654863ee5f4f6978dd8373ce056e2728106204d7c9095e6efe2558108e0afff390602001611097565b60007f0000000000000000000000000000000000000000000000000000000000000000461461195a57610f026133ba565b507f000000000000000000000000000000000000000000000000000000000000000090565b6000610f02611c2f565b601254600d546000916001600160401b03600160401b909104811691600160801b90041680820142106119bf5760009250505090565b601254600160801b90046001600160801b031681428490038202816119e6576119e6614877565b0490039392505050565b600b546001600160a01b03163314611a1a5760405162461bcd60e51b8152600401610fdc90614722565b601354602011611a595760405162461bcd60e51b815260206004820152600a60248201526914d51050d2d7d195531360b21b6044820152606401610fdc565b6013805460018101825560009182527f66de8ffda797e3de9c05e8fc57b3bf0ec28a930d40b0d285d93c06501cf6a0900180546001600160a01b0319166001600160a01b038416908117909155604051909133917f5abc18e64ea5219f39a4afb4519bdb3d895e6ec8282ec44db4c253289abdab1b9190a350565b6000610fac82610f95565b600b546001600160a01b0316331480611b025750600e546001600160a01b031633145b611b1e5760405162461bcd60e51b8152600401610fdc90614757565b600a8190556040518181527f19624bad41c0dfe5de5741548c68312405ce524e76a69826fd005aa12f2717ad906020015b60405180910390a150565b600b546001600160a01b03163314611b845760405162461bcd60e51b8152600401610fdc90614722565b6013805460009190611b98906001906147ce565b81548110611ba857611ba86147e5565b600091825260209091200154601380546001600160a01b0390921692509080611bd357611bd36147fb565b600082815260208120820160001990810180546001600160a01b03191690559091019091556040516001600160a01b0383169133917f61d23abf676b955085fda50d45f510cdab69e13e63afebdde7f4453b529fbfdc9190a350565b6000600854600254610f029190614811565b6000611c4c83613267565b905080611c895760405162461bcd60e51b815260206004820152600b60248201526a5a45524f5f53484152455360a81b6044820152606401610fdc565b611cbe6001600160a01b037f000000000000000000000000000000000000000000000000000000000000000016333086613454565b611cc882826134e8565b60408051848152602081018390526001600160a01b0384169133917fdcbc1c05240f31ff3ad067ef1ee35ce4997762752e3a095284754544f4c709d791015b60405180910390a3610fac565b600b546001600160a01b03163314611d3e5760405162461bcd60e51b8152600401610fdc90614722565b611d486000613542565b565b600b546001600160a01b03163314611d745760405162461bcd60e51b8152600401610fdc90614722565b6001600160401b038116611dc15760405162461bcd60e51b815260206004820152601460248201527344454c41595f43414e4e4f545f42455f5a45524f60601b6044820152606401610fdc565b6301e13380816001600160401b03161115611e0f5760405162461bcd60e51b815260206004820152600e60248201526d44454c41595f544f4f5f4c4f4e4760901b6044820152606401610fdc565b600d54600160801b90046001600160401b0316611e8357600d805467ffffffffffffffff60801b1916600160801b6001600160401b0384169081029190911790915560405190815233907fe893fa207c5a5094cad036347b877c23ebecd9df94ae0426f287040c13220b3f90602001611097565b600d80546001600160c01b0316600160c01b6001600160401b0384169081029190911790915560405190815233907f342b344c0ac2ffff8f84b1d82d8235a2401a0accf4666f1fec4a1c3cdf1d29e790602001611097565b50565b600b546001600160a01b03163314611f085760405162461bcd60e51b8152600401610fdc90614722565b670de0b6b3a7640000811115611f4f5760405162461bcd60e51b815260206004820152600c60248201526b08c8a8abea89e9ebe90928e960a31b6044820152606401610fdc565b600c81905560405181815233907fec370615cc81fb334e5566fbc80664d9082377bf59288d64a79f3fbecf4323a990602001611097565b6000611f90611989565b601054039050611f9e61209f565b610f029082614811565b600b546001600160a01b03163314611fd25760405162461bcd60e51b8152600401610fdc90614722565b601454600160a01b900460ff16156120225760405162461bcd60e51b81526020600482015260136024820152721053149150511657d253925512505312569151606a1b6044820152606401610fdc565b6014805460ff60a01b1916600160a01b179055670de0b6b3a7640000600a556000600281905560405133917f908408e307fc569b417f6cbec5d5a06f44a0a505ac0479b47d421a4b2fd6a1e691a2565b600b546001600160a01b0316331461209c5760405162461bcd60e51b8152600401610fdc90614722565b33ff5b6040516370a0823160e01b81523060048201526000907f00000000000000000000000000000000000000000000000000000000000000006001600160a01b0316906370a0823190602401602060405180830381865afa158015612106573d6000803e3d6000fd5b505050506040513d601f19601f82011682018060405250810190610f02919061477d565b600b546001600160a01b031633146121545760405162461bcd60e51b8152600401610fdc90614722565b6001600160a01b03811661216757600080fd5b601480546001600160a01b0319166001600160a01b0392909216919091179055565b60006121948361233a565b90506121cb6001600160a01b037f000000000000000000000000000000000000000000000000000000000000000016333084613454565b6121d582846134e8565b60408051828152602081018590526001600160a01b0384169133917fdcbc1c05240f31ff3ad067ef1ee35ce4997762752e3a095284754544f4c709d79101611d07565b60018054610f14906146e7565b336000908152600360205260408120805483919083906122469084906147ce565b90915550506001600160a01b03831660008181526003602052604090819020805485019055513390600080516020614a96833981519152906110fd9086815260200190565b7ff384e0e88816a3074d0d64562559cbd89504e99f3496997dd6dbe50f7cf8c0a1868685856040516122c0949392919061488d565b60405180910390a1505050505050565b600b546001600160a01b031633146122fa5760405162461bcd60e51b8152600401610fdc90614722565b60405181815233907f9493e5bbe4e8e0ac67284469a2d677403d0378a85a59e341d3abc433d0d9a2099060200160405180910390a2611edb30338361333b565b6000610fac600a548361359490919063ffffffff16565b6000600260065414156123a65760405162461bcd60e51b815260206004820152601f60248201527f5265656e7472616e637947756172643a207265656e7472616e742063616c6c006044820152606401610fdc565b60026006556123b48461110e565b9050336001600160a01b0383161461246b576001600160a01b0382166000908152600460209081526040808320338452909152902054818110156124315760405162461bcd60e51b81526020600482015260146024820152734e6f7420656e6f75676820416c6c6f77616e636560601b6044820152606401610fdc565b60001981146124695761244482826147ce565b6001600160a01b03841660009081526004602090815260408083203384529091529020555b505b6001600160a01b0382166000908152600360205260409020548111156124a35760405162461bcd60e51b8152600401610fdc906148c6565b6000806124b086866135a9565b915091506124be848461368e565b60408051878152602081018590526001600160a01b03808716929088169133917ffbde797d201c681b91056529119e0b02407c7bb96a4a2c75c01fc9667232c8db910160405180910390a48115612548576125436001600160a01b037f000000000000000000000000000000000000000000000000000000000000000016868861333b565b61257c565b61257c6001600160a01b037f000000000000000000000000000000000000000000000000000000000000000016868361333b565b505060016006559392505050565b600b546001600160a01b03163314806125ad5750600e546001600160a01b031633145b6125c95760405162461bcd60e51b8152600401610fdc90614757565b6001600160a01b03821660009081526011602052604090205460ff166126015760405162461bcd60e51b8152600401610fdc90614909565b61260a816136f0565b6001600160a01b0383166000908152601160205260409020805460019061264090849061010090046001600160f81b0316614935565b82546001600160f81b039182166101009390930a9283029190920219909116179055506010805482900390556040518181526001600160a01b0383169033907f8d851b682e239b1de720e92e5c5cffdb72d353104cc63dc6ed144d7080217fbe9060200160405180910390a3604051632e1a7d4d60e01b8152600481018290526001600160a01b03831690632e1a7d4d906024016020604051808303816000875af11580156126f3573d6000803e3d6000fd5b505050506040513d601f19601f82011682018060405250810190612717919061477d565b156127545760405162461bcd60e51b815260206004820152600d60248201526c14915111515357d19052531151609a1b6044820152606401610fdc565b5050565b6000600260065414156127ad5760405162461bcd60e51b815260206004820152601f60248201527f5265656e7472616e637947756172643a207265656e7472616e742063616c6c006044820152606401610fdc565b6002600655336001600160a01b03831614612867576001600160a01b03821660009081526004602090815260408083203384529091529020548481101561282d5760405162461bcd60e51b81526020600482015260146024820152734e6f7420656e6f75676820416c6c6f77616e636560601b6044820152606401610fdc565b60001981146128655761284085826147ce565b6001600160a01b03841660009081526004602090815260408083203384529091529020555b505b61287084611ad4565b9050806128ad5760405162461bcd60e51b815260206004820152600b60248201526a5a45524f5f41535345545360a81b6044820152606401610fdc565b6001600160a01b0382166000908152600360205260409020548411156128e55760405162461bcd60e51b8152600401610fdc906148c6565b6000806128f283866135a9565b91509150612900848761368e565b60408051848152602081018890526001600160a01b03808716929088169133917ffbde797d201c681b91056529119e0b02407c7bb96a4a2c75c01fc9667232c8db910160405180910390a48115612548576125436001600160a01b037f000000000000000000000000000000000000000000000000000000000000000016868561333b565b600b546001600160a01b03163314806129a85750600e546001600160a01b031633145b6129c45760405162461bcd60e51b8152600401610fdc90614757565b6001600160a01b03821660009081526011602052604090205460ff166129fc5760405162461bcd60e51b8152600401610fdc90614909565b8060106000828254612a0e9190614811565b90915550612a1d9050816136f0565b6001600160a01b0383166000818152601160205260409081902080546001600160f81b0361010080830482169096011690940260ff90941693909317909255905133907f49e9138fe0dacf001ea634236e38aa8bd229efd55ec4d7975228d679db6ce8f990612a8f9085815260200190565b60405180910390a3612acb6001600160a01b037f000000000000000000000000000000000000000000000000000000000000000016838361370a565b60405163b6b55f2560e01b8152600481018290526001600160a01b0383169063b6b55f25906024016020604051808303816000875af1158015612b12573d6000803e3d6000fd5b505050506040513d601f19601f82011682018060405250810190612b36919061477d565b156127545760405162461bcd60e51b815260206004820152600e60248201526d19195c1bdcda5d17d1905253115160921b6044820152606401610fdc565b600b546001600160a01b0316331480612b975750600e546001600160a01b031633145b612bb35760405162461bcd60e51b8152600401610fdc90614757565b821580612bbe575081155b612c0a5760405162461bcd60e51b815260206004820152601b60248201527f43616e6e6f74206465706f73697420616e6420776974686472617700000000006044820152606401610fdc565b612c12613782565b8215612c2157612c2183613bcd565b612c29613c24565b8115612c6f5760138054612c6f9190612c44906001906147ce565b81548110612c5457612c546147e5565b6000918252602090912001546001600160a01b031683612985565b612c78816118b3565b505050565b6000610fac600a5483613dbf90919063ffffffff16565b600b546001600160a01b03163314612cbe5760405162461bcd60e51b8152600401610fdc90614722565b6001600160a01b038116600081815260116020526040808220805460ff191690555133917fff8fe190f3935e9e8681ce444b08be824a6be3e5184465ddbd710cc4f1a9f2f291a350565b6001600160a01b038116600090815260036020526040812054610fac90610f95565b600b546001600160a01b0316331480612d4d5750600e546001600160a01b031633145b612d695760405162461bcd60e51b8152600401610fdc90614757565b6001600160a01b038116612db15760405162461bcd60e51b815260206004820152600f60248201526e496e76616c6964204164647265737360881b6044820152606401610fdc565b600e80546001600160a01b0319166001600160a01b0383169081179091556040519081527f0425bcd291db1d48816f2a98edc7ecaf6dd5c64b973d9e4b3b6b750763dc6c2e90602001611b4f565b42841015612e4f5760405162461bcd60e51b815260206004820152601760248201527f5045524d49545f444541444c494e455f455850495245440000000000000000006044820152606401610fdc565b6000612e59611929565b6001600160a01b0389811660008181526005602090815260409182902080546001810190915582517f6e71edae12b1b97f4d1f60370fef10105fa2faae0126114a169c64845d6126c98184015280840194909452938c166060840152608083018b905260a083019390935260c08083018a90528151808403909101815260e08301909152805192019190912061190160f01b6101008301526101028201929092526101228101919091526101420160408051601f198184030181528282528051602091820120600080855291840180845281905260ff88169284019290925260608301869052608083018590529092509060019060a0016020604051602081039080840390855afa158015612f72573d6000803e3d6000fd5b5050604051601f1901519150506001600160a01b03811615801590612fa85750886001600160a01b0316816001600160a01b0316145b612fe55760405162461bcd60e51b815260206004820152600e60248201526d24a72b20a624a22fa9a4a3a722a960911b6044820152606401610fdc565b6001600160a01b0390811660009081526004602090815260408083208b8516808552908352928190208a905551898152919350918a16917f8c5be1e5ebec7d5bd14f71427d1e84f3dd0314c0f7b2291e5b200ac8c7c3b925910160405180910390a350505050505050565b600b546001600160a01b0316331461307a5760405162461bcd60e51b8152600401610fdc90614722565b7f00000000000000000000000000000000000000000000000000000000000000006001600160a01b0316816001600160a01b0316636f307dc36040518163ffffffff1660e01b8152600401602060405180830381865afa1580156130e2573d6000803e3d6000fd5b505050506040513d601f19601f82011682018060405250810190613106919061495d565b6001600160a01b03161461314f5760405162461bcd60e51b815260206004820152601060248201526f57524f4e475f554e4445524c59494e4760801b6044820152606401610fdc565b6001600160a01b038116600081815260116020526040808220805460ff191660011790555133917f2fc1f5b589e399a463bf89605c1539bdd9878a9a3acd089abeca7a15e1fbe6ec91a350565b600b546001600160a01b031633146131c65760405162461bcd60e51b8152600401610fdc90614722565b6000601383815481106131db576131db6147e5565b600091825260209091200154601380546001600160a01b03909216925083918590811061320a5761320a6147e5565b60009182526020918290200180546001600160a01b0319166001600160a01b039384161790556040518581528483169284169133917f6b3d5cb176c4387df974c7528104dc97592d836de95196de9f68adbb6f46d5ac910161152d565b6000610fac82612c7d565b600b546001600160a01b0316331461329c5760405162461bcd60e51b8152600401610fdc90614722565b6001600160a01b0381166133015760405162461bcd60e51b815260206004820152602660248201527f4f776e61626c653a206e6577206f776e657220697320746865207a65726f206160448201526564647265737360d01b6064820152608401610fdc565b611edb81613542565b600061331f8383670de0b6b3a7640000613dd0565b9392505050565b600061331f83670de0b6b3a764000084613def565b600060405163a9059cbb60e01b81526001600160a01b03841660048201528260248201526000806044836000895af191505061337681613e1d565b6133b45760405162461bcd60e51b815260206004820152600f60248201526e1514905394d1915497d19052531151608a1b6044820152606401610fdc565b50505050565b60007f8b73c3c69bb8fe3d512ecc4cf759cc79239f7b179b0ffacaa9a75d522b39400f60006040516133ec919061497a565b6040805191829003822060208301939093528101919091527fc89efdaa54c0f20c7adf612882df0950f5a951637e0307cdcb4c672f298b8bc660608201524660808201523060a082015260c00160405160208183030381529060405280519060200120905090565b60006040516323b872dd60e01b81526001600160a01b03851660048201526001600160a01b038416602482015282604482015260008060648360008a5af191505061349e81613e1d565b6134e15760405162461bcd60e51b81526020600482015260146024820152731514905394d1915497d19493d357d1905253115160621b6044820152606401610fdc565b5050505050565b80600260008282546134fa9190614811565b90915550506001600160a01b038216600081815260036020908152604080832080548601905551848152600080516020614a9683398151915291015b60405180910390a35050565b600b80546001600160a01b038381166001600160a01b0319831681179093556040519116919082907f8be0079c531659141344cd1fd0a4f28419497f9722a3daafe3b4186f6b6457e090600090a35050565b600061331f8383670de0b6b3a7640000613def565b6000806135b4611f86565b90508084111561367a576009805460018101825560009182527f6e1540171b6c0c960b71a7020d9f60077f6af931a8bbf590da0223dacf75c7af0180546001600160a01b0319166001600160a01b038616179055915080156136195761361981613bcd565b6000613628610cc983876147ce565b6001600160a01b038516600090815260076020526040812080549293508392909190613655908490614811565b92505081905550806008600082825461366e9190614811565b90915550613687915050565b6001915061368784613bcd565b9250929050565b6001600160a01b038216600090815260036020526040812080548392906136b69084906147ce565b90915550506002805482900390556040518181526000906001600160a01b03841690600080516020614a9683398151915290602001613536565b60006001600160f81b0382111561370657600080fd5b5090565b600060405163095ea7b360e01b81526001600160a01b03841660048201528260248201526000806044836000895af191505061374581613e1d565b6133b45760405162461bcd60e51b815260206004820152600e60248201526d1054141493d59157d1905253115160921b6044820152606401610fdc565b600d546012546137ac916001600160401b03600160801b909104811691600160401b900416614a16565b6001600160401b031642106137dc576012805467ffffffffffffffff1916426001600160401b0316179055613849565b600d546012546137fe916001600160801b0316906001600160401b0316614a41565b6001600160801b03164211156138495760405162461bcd60e51b815260206004820152601060248201526f4241445f484152564553545f54494d4560801b6044820152606401610fdc565b600060138054806020026020016040519081016040528092919081815260200182805480156138a157602002820191906000526020600020905b81546001600160a01b03168152600190910190602001808311613883575b5050601054939450600092508391508290505b8451811015613a215760008582815181106138d1576138d16147e5565b6020908102919091018101516001600160a01b0381166000908152601190925260409091205490915060ff166139195760405162461bcd60e51b8152600401610fdc90614909565b6001600160a01b0381166000818152601160209081526040808320548151630efbb5cb60e41b815291516101009091046001600160f81b0316949263efbb5cb092600480820193918290030181865afa15801561397a573d6000803e3d6000fd5b505050506040513d601f19601f8201168201806040525081019061399e919061477d565b90506139a9816136f0565b6001600160a01b038416600090815260116020526040902080546001600160f81b03929092166101000260ff909216919091179055816139e98287614811565b6139f391906147ce565b9450818111613a03576000613a07565b8181035b860195505050508080613a1990614a63565b9150506138b4565b50600c54600090613a3c908490670de0b6b3a7640000613dd0565b9050613a9c30613a977f0000000000000000000000000000000000000000000000000000000000000000613a8f7f0000000000000000000000000000000000000000000000000000000000000000610f95565b859190613dd0565b6134e8565b613ac28184613aa9611989565b613ab39190614811565b613abd91906147ce565b613e64565b6012805460108590556001600160401b03428116600160401b026fffffffffffffffff0000000000000000196001600160801b0395909516600160801b029490941691161791909117905560405133907f69e9c71f6799744a94d9897e77c3ed426cc2f92ba0ef3300785368209b6f4b2d90613b3f9088906143fd565b60405180910390a2600d54600160c01b90046001600160401b03168015613bc557600d80546001600160801b0316600160801b6001600160401b0384169081026001600160c01b03169190911790915560405190815233907fe893fa207c5a5094cad036347b877c23ebecd9df94ae0426f287040c13220b3f9060200160405180910390a25b505050505050565b6000613bd761209f565b905080821115612754576000613bed82846147ce565b90506000600f5482613bff9190614811565b9050601054811015613c1957613c1481613e7a565b6133b4565b6133b4601054613e7a565b600854613c2d57565b613c38600854610f95565b6040516370a0823160e01b81523060048201527f00000000000000000000000000000000000000000000000000000000000000006001600160a01b0316906370a0823190602401602060405180830381865afa158015613c9c573d6000803e3d6000fd5b505050506040513d601f19601f82011682018060405250810190613cc0919061477d565b1015613ccb57600080fd5b60008060005b600954811015613d7e5760098181548110613cee57613cee6147e5565b60009182526020808320909101546001600160a01b0316808352600790915260409091205490935091508115613d6c57613d526001600160a01b037f000000000000000000000000000000000000000000000000000000000000000016848461333b565b6001600160a01b0383166000908152600760205260408120555b80613d7681614a63565b915050613cd1565b5060006008819055613d92906009906141a0565b6040517f145993cc1fdb21ea31d0db5cbc6847f85417bc63903a4b5183302db674fed4b990600090a15050565b600061331f83670de0b6b3a7640000845b828202811515841585830485141716613de857600080fd5b0492915050565b828202811515841585830485141716613e0757600080fd5b6001826001830304018115150290509392505050565b60003d82613e2f57806000803e806000fd5b8060208114613e47578015613e585760009250613e5d565b816000803e60005115159250613e5d565b600192505b5050919050565b60006001600160801b0382111561370657600080fd5b6013548190600090613e8e906001906147ce565b90505b600060138281548110613ea657613ea66147e5565b60009182526020808320909101546001600160a01b031680835260119091526040909120549091506001600160f81b036101008204169060ff161580613eea575080155b15613f60576013805480613f0057613f006147fb565b600082815260208120820160001990810180546001600160a01b03191690559091019091556040516001600160a01b0384169133917f61d23abf676b955085fda50d45f510cdab69e13e63afebdde7f4453b529fbfdc9190a35050614121565b6000848211613f6f5781613f71565b845b9050808203613f7f816136f0565b6001600160a01b0385166000818152601160205260409081902080546001600160f81b03949094166101000260ff909416939093179092559051968390039633907f8d851b682e239b1de720e92e5c5cffdb72d353104cc63dc6ed144d7080217fbe90613fef9086815260200190565b60405180910390a3604051632e1a7d4d60e01b8152600481018390526001600160a01b03851690632e1a7d4d906024016020604051808303816000875af115801561403e573d6000803e3d6000fd5b505050506040513d601f19601f82011682018060405250810190614062919061477d565b1561409f5760405162461bcd60e51b815260206004820152600d60248201526c14915111515357d19052531151609a1b6044820152606401610fdc565b8061410f5760138054806140b5576140b56147fb565b600082815260208120820160001990810180546001600160a01b03191690559091019091556040516001600160a01b0386169133917f61d23abf676b955085fda50d45f510cdab69e13e63afebdde7f4453b529fbfdc9190a35b508461411d57505050614133565b5050505b8061412b81614a7e565b915050613e91565b505060108054919091039055565b828054828255906000526020600020908101928215614194579160200282015b828111156141945781546001600160a01b0319166001600160a01b03843516178255602090920191600190910190614161565b506137069291506141ba565b5080546000825590600052602060002090810190611edb91905b5b8082111561370657600081556001016141bb565b6000815180845260005b818110156141f5576020818501810151868301820152016141d9565b81811115614207576000602083870101525b50601f01601f19169290920160200192915050565b60208152600061331f60208301846141cf565b60006020828403121561424157600080fd5b5035919050565b60006020828403121561425a57600080fd5b81356001600160801b038116811461331f57600080fd5b6001600160a01b0381168114611edb57600080fd5b6000806040838503121561429957600080fd5b82356142a481614271565b946020939093013593505050565b803561ffff811681146142c457600080fd5b919050565b6000806000606084860312156142de57600080fd5b6142e7846142b2565b92506020840135915060408401356142fe81614271565b809150509250925092565b60006020828403121561431b57600080fd5b813561331f81614271565b6000806020838503121561433957600080fd5b82356001600160401b038082111561435057600080fd5b818501915085601f83011261436457600080fd5b81358181111561437357600080fd5b8660208260051b850101111561438857600080fd5b60209290920196919550909350505050565b6000806000606084860312156143af57600080fd5b83356143ba81614271565b925060208401356143ca81614271565b929592945050506040919091013590565b600080604083850312156143ee57600080fd5b50508035926020909101359150565b6020808252825182820181905260009190848201906040850190845b8181101561443e5783516001600160a01b031683529284019291840191600101614419565b50909695505050505050565b6000806040838503121561445d57600080fd5b82359150602083013561446f81614271565b809150509250929050565b60006020828403121561448c57600080fd5b81356001600160401b038116811461331f57600080fd5b634e487b7160e01b600052604160045260246000fd5b600082601f8301126144ca57600080fd5b81356001600160401b03808211156144e4576144e46144a3565b604051601f8301601f19908116603f0116810190828211818310171561450c5761450c6144a3565b8160405283815286602085880101111561452557600080fd5b836020870160208301376000602085830101528094505050505092915050565b60008060008060008060c0878903121561455e57600080fd5b614567876142b2565b955060208701356001600160401b038082111561458357600080fd5b61458f8a838b016144b9565b965060408901359550606089013591506145a882614271565b9093506080880135925060a088013590808211156145c557600080fd5b506145d289828a016144b9565b9150509295509295509295565b6000806000606084860312156145f457600080fd5b83359250602084013561460681614271565b915060408401356142fe81614271565b60008060006060848603121561462b57600080fd5b505081359360208301359350604090920135919050565b600080600080600080600060e0888a03121561465d57600080fd5b873561466881614271565b9650602088013561467881614271565b95506040880135945060608801359350608088013560ff8116811461469c57600080fd5b9699959850939692959460a0840135945060c09093013592915050565b600080604083850312156146cc57600080fd5b82356146d781614271565b9150602083013561446f81614271565b600181811c908216806146fb57607f821691505b6020821081141561471c57634e487b7160e01b600052602260045260246000fd5b50919050565b6020808252818101527f4f776e61626c653a2063616c6c6572206973206e6f7420746865206f776e6572604082015260600190565b6020808252600c908201526b15539055551213d49256915160a21b604082015260600190565b60006020828403121561478f57600080fd5b5051919050565b6000602082840312156147a857600080fd5b8151801515811461331f57600080fd5b634e487b7160e01b600052601160045260246000fd5b6000828210156147e0576147e06147b8565b500390565b634e487b7160e01b600052603260045260246000fd5b634e487b7160e01b600052603160045260246000fd5b60008219821115614824576148246147b8565b500190565b60208082528181018390526000908460408401835b8681101561486c57823561485181614271565b6001600160a01b03168252918301919083019060010161483e565b509695505050505050565b634e487b7160e01b600052601260045260246000fd5b61ffff851681526080602082015260006148aa60808301866141cf565b6001600160a01b03949094166040830152506060015292915050565b60208082526023908201527f4e6f7420656e6f7567682073686172657320666f72207468697320576974686460408201526272617760e81b606082015260800190565b602080825260129082015271554e545255535445445f535452415445475960701b604082015260600190565b60006001600160f81b0383811690831681811015614955576149556147b8565b039392505050565b60006020828403121561496f57600080fd5b815161331f81614271565b600080835481600182811c91508083168061499657607f831692505b60208084108214156149b657634e487b7160e01b86526022600452602486fd5b8180156149ca57600181146149db57614a08565b60ff19861689528489019650614a08565b60008a81526020902060005b86811015614a005781548b8201529085019083016149e7565b505084890196505b509498975050505050505050565b60006001600160401b03808316818516808303821115614a3857614a386147b8565b01949350505050565b60006001600160801b03808316818516808303821115614a3857614a386147b8565b6000600019821415614a7757614a776147b8565b5060010190565b600081614a8d57614a8d6147b8565b50600019019056feddf252ad1be2c89b69c2b068fc378daa952ba7f163c4a11628f55a4df523b3efa26469706673582212200a92dd97ec366530f7cf31dd88848f54b44f33199ce4f1410bd8672730975d5264736f6c634300080a0033",
  "linkReferences": {},
  "deployedLinkReferences": {}
}