{
  "_format": "hh-sol-artifact-1",
  "contractName": "SavorVault",
  "sourceName": "contracts/SavorVault.sol",
  "abi": [
    {
      "inputs": [
        {
          "internalType": "contract ERC20",
          "name": "_UNDERLYING",
          "type": "address"
        },
        {
          "internalType": "address",
          "name": "_bridgerton",
          "type": "address"
        },
        {
          "internalType": "address",
          "name": "_keeper",
          "type": "address"
        }
      ],
      "stateMutability": "nonpayable",
      "type": "constructor"
    },
    {
      "anonymous": false,
      "inputs": [
        {
          "indexed": true,
          "internalType": "address",
          "name": "owner",
          "type": "address"
        },
        {
          "indexed": true,
          "internalType": "address",
          "name": "spender",
          "type": "address"
        },
        {
          "indexed": false,
          "internalType": "uint256",
          "name": "amount",
          "type": "uint256"
        }
      ],
      "name": "Approval",
      "type": "event"
    },
    {
      "anonymous": false,
      "inputs": [
        {
          "indexed": true,
          "internalType": "address",
          "name": "caller",
          "type": "address"
        },
        {
          "indexed": true,
          "internalType": "address",
          "name": "owner",
          "type": "address"
        },
        {
          "indexed": false,
          "internalType": "uint256",
          "name": "assets",
          "type": "uint256"
        },
        {
          "indexed": false,
          "internalType": "uint256",
          "name": "shares",
          "type": "uint256"
        }
      ],
      "name": "Deposit",
      "type": "event"
    },
    {
      "anonymous": false,
      "inputs": [
        {
          "indexed": true,
          "internalType": "address",
          "name": "user",
          "type": "address"
        },
        {
          "indexed": false,
          "internalType": "uint256",
          "name": "newFeePercent",
          "type": "uint256"
        }
      ],
      "name": "FeePercentUpdated",
      "type": "event"
    },
    {
      "anonymous": false,
      "inputs": [
        {
          "indexed": true,
          "internalType": "address",
          "name": "user",
          "type": "address"
        },
        {
          "indexed": false,
          "internalType": "uint256",
          "name": "rvTokenAmount",
          "type": "uint256"
        }
      ],
      "name": "FeesClaimed",
      "type": "event"
    },
    {
      "anonymous": false,
      "inputs": [
        {
          "indexed": true,
          "internalType": "address",
          "name": "user",
          "type": "address"
        },
        {
          "indexed": false,
          "internalType": "contract Strategy[]",
          "name": "strategies",
          "type": "address[]"
        }
      ],
      "name": "Harvest",
      "type": "event"
    },
    {
      "anonymous": false,
      "inputs": [
        {
          "indexed": true,
          "internalType": "address",
          "name": "user",
          "type": "address"
        },
        {
          "indexed": false,
          "internalType": "uint64",
          "name": "newHarvestDelay",
          "type": "uint64"
        }
      ],
      "name": "HarvestDelayUpdateScheduled",
      "type": "event"
    },
    {
      "anonymous": false,
      "inputs": [
        {
          "indexed": true,
          "internalType": "address",
          "name": "user",
          "type": "address"
        },
        {
          "indexed": false,
          "internalType": "uint64",
          "name": "newHarvestDelay",
          "type": "uint64"
        }
      ],
      "name": "HarvestDelayUpdated",
      "type": "event"
    },
    {
      "anonymous": false,
      "inputs": [
        {
          "indexed": true,
          "internalType": "address",
          "name": "user",
          "type": "address"
        },
        {
          "indexed": false,
          "internalType": "uint128",
          "name": "newHarvestWindow",
          "type": "uint128"
        }
      ],
      "name": "HarvestWindowUpdated",
      "type": "event"
    },
    {
      "anonymous": false,
      "inputs": [
        {
          "indexed": true,
          "internalType": "address",
          "name": "user",
          "type": "address"
        }
      ],
      "name": "Initialized",
      "type": "event"
    },
    {
      "anonymous": false,
      "inputs": [
        {
          "indexed": false,
          "internalType": "address",
          "name": "_keeper",
          "type": "address"
        }
      ],
      "name": "KeeperUpdated",
      "type": "event"
    },
    {
      "anonymous": false,
      "inputs": [
        {
          "indexed": true,
          "internalType": "address",
          "name": "previousOwner",
          "type": "address"
        },
        {
          "indexed": true,
          "internalType": "address",
          "name": "newOwner",
          "type": "address"
        }
      ],
      "name": "OwnershipTransferred",
      "type": "event"
    },
    {
      "anonymous": false,
      "inputs": [
        {
          "indexed": true,
          "internalType": "address",
          "name": "user",
          "type": "address"
        },
        {
          "indexed": true,
          "internalType": "contract Strategy",
          "name": "strategy",
          "type": "address"
        },
        {
          "indexed": false,
          "internalType": "uint256",
          "name": "underlyingAmount",
          "type": "uint256"
        }
      ],
      "name": "StrategyDeposit",
      "type": "event"
    },
    {
      "anonymous": false,
      "inputs": [
        {
          "indexed": true,
          "internalType": "address",
          "name": "user",
          "type": "address"
        },
        {
          "indexed": true,
          "internalType": "contract Strategy",
          "name": "strategy",
          "type": "address"
        }
      ],
      "name": "StrategyDistrusted",
      "type": "event"
    },
    {
      "anonymous": false,
      "inputs": [
        {
          "indexed": true,
          "internalType": "address",
          "name": "user",
          "type": "address"
        },
        {
          "indexed": true,
          "internalType": "contract Strategy",
          "name": "strategy",
          "type": "address"
        }
      ],
      "name": "StrategyTrusted",
      "type": "event"
    },
    {
      "anonymous": false,
      "inputs": [
        {
          "indexed": true,
          "internalType": "address",
          "name": "user",
          "type": "address"
        },
        {
          "indexed": true,
          "internalType": "contract Strategy",
          "name": "strategy",
          "type": "address"
        },
        {
          "indexed": false,
          "internalType": "uint256",
          "name": "underlyingAmount",
          "type": "uint256"
        }
      ],
      "name": "StrategyWithdrawal",
      "type": "event"
    },
    {
      "anonymous": false,
      "inputs": [
        {
          "indexed": true,
          "internalType": "address",
          "name": "user",
          "type": "address"
        },
        {
          "indexed": false,
          "internalType": "uint256",
          "name": "newTargetFloatPercent",
          "type": "uint256"
        }
      ],
      "name": "TargetFloatPercentUpdated",
      "type": "event"
    },
    {
      "anonymous": false,
      "inputs": [
        {
          "indexed": true,
          "internalType": "address",
          "name": "from",
          "type": "address"
        },
        {
          "indexed": true,
          "internalType": "address",
          "name": "to",
          "type": "address"
        },
        {
          "indexed": false,
          "internalType": "uint256",
          "name": "amount",
          "type": "uint256"
        }
      ],
      "name": "Transfer",
      "type": "event"
    },
    {
      "anonymous": false,
      "inputs": [
        {
          "indexed": true,
          "internalType": "address",
          "name": "caller",
          "type": "address"
        },
        {
          "indexed": true,
          "internalType": "address",
          "name": "receiver",
          "type": "address"
        },
        {
          "indexed": true,
          "internalType": "address",
          "name": "owner",
          "type": "address"
        },
        {
          "indexed": false,
          "internalType": "uint256",
          "name": "assets",
          "type": "uint256"
        },
        {
          "indexed": false,
          "internalType": "uint256",
          "name": "shares",
          "type": "uint256"
        }
      ],
      "name": "Withdraw",
      "type": "event"
    },
    {
      "anonymous": false,
      "inputs": [
        {
          "indexed": true,
          "internalType": "address",
          "name": "user",
          "type": "address"
        },
        {
          "indexed": false,
          "internalType": "uint256",
          "name": "index",
          "type": "uint256"
        },
        {
          "indexed": true,
          "internalType": "contract Strategy",
          "name": "replacedStrategy",
          "type": "address"
        },
        {
          "indexed": true,
          "internalType": "contract Strategy",
          "name": "replacementStrategy",
          "type": "address"
        }
      ],
      "name": "WithdrawalStackIndexReplaced",
      "type": "event"
    },
    {
      "anonymous": false,
      "inputs": [
        {
          "indexed": true,
          "internalType": "address",
          "name": "user",
          "type": "address"
        },
        {
          "indexed": false,
          "internalType": "uint256",
          "name": "index",
          "type": "uint256"
        },
        {
          "indexed": true,
          "internalType": "contract Strategy",
          "name": "replacedStrategy",
          "type": "address"
        },
        {
          "indexed": true,
          "internalType": "contract Strategy",
          "name": "previousTipStrategy",
          "type": "address"
        }
      ],
      "name": "WithdrawalStackIndexReplacedWithTip",
      "type": "event"
    },
    {
      "anonymous": false,
      "inputs": [
        {
          "indexed": true,
          "internalType": "address",
          "name": "user",
          "type": "address"
        },
        {
          "indexed": false,
          "internalType": "uint256",
          "name": "index1",
          "type": "uint256"
        },
        {
          "indexed": false,
          "internalType": "uint256",
          "name": "index2",
          "type": "uint256"
        },
        {
          "indexed": true,
          "internalType": "contract Strategy",
          "name": "newStrategy1",
          "type": "address"
        },
        {
          "indexed": true,
          "internalType": "contract Strategy",
          "name": "newStrategy2",
          "type": "address"
        }
      ],
      "name": "WithdrawalStackIndexesSwapped",
      "type": "event"
    },
    {
      "anonymous": false,
      "inputs": [
        {
          "indexed": true,
          "internalType": "address",
          "name": "user",
          "type": "address"
        },
        {
          "indexed": true,
          "internalType": "contract Strategy",
          "name": "poppedStrategy",
          "type": "address"
        }
      ],
      "name": "WithdrawalStackPopped",
      "type": "event"
    },
    {
      "anonymous": false,
      "inputs": [
        {
          "indexed": true,
          "internalType": "address",
          "name": "user",
          "type": "address"
        },
        {
          "indexed": true,
          "internalType": "contract Strategy",
          "name": "pushedStrategy",
          "type": "address"
        }
      ],
      "name": "WithdrawalStackPushed",
      "type": "event"
    },
    {
      "anonymous": false,
      "inputs": [
        {
          "indexed": true,
          "internalType": "address",
          "name": "user",
          "type": "address"
        },
        {
          "indexed": false,
          "internalType": "contract Strategy[]",
          "name": "replacedWithdrawalStack",
          "type": "address[]"
        }
      ],
      "name": "WithdrawalStackSet",
      "type": "event"
    },
    {
      "anonymous": false,
      "inputs": [
        {
          "indexed": false,
          "internalType": "uint16",
          "name": "_chainId",
          "type": "uint16"
        },
        {
          "indexed": false,
          "internalType": "bytes",
          "name": "_srcAddress",
          "type": "bytes"
        },
        {
          "indexed": false,
          "internalType": "address",
          "name": "_token",
          "type": "address"
        },
        {
          "indexed": false,
          "internalType": "uint256",
          "name": "amountLD",
          "type": "uint256"
        }
      ],
      "name": "sgReceived",
      "type": "event"
    },
    {
      "inputs": [],
      "name": "DOMAIN_SEPARATOR",
      "outputs": [
        {
          "internalType": "bytes32",
          "name": "",
          "type": "bytes32"
        }
      ],
      "stateMutability": "view",
      "type": "function"
    },
    {
      "inputs": [],
      "name": "PERMIT_TYPEHASH",
      "outputs": [
        {
          "internalType": "bytes32",
          "name": "",
          "type": "bytes32"
        }
      ],
      "stateMutability": "view",
      "type": "function"
    },
    {
      "inputs": [],
      "name": "UNDERLYING",
      "outputs": [
        {
          "internalType": "contract ERC20",
          "name": "",
          "type": "address"
        }
      ],
      "stateMutability": "view",
      "type": "function"
    },
    {
      "inputs": [],
      "name": "_totalSupply",
      "outputs": [
        {
          "internalType": "uint256",
          "name": "",
          "type": "uint256"
        }
      ],
      "stateMutability": "view",
      "type": "function"
    },
    {
      "inputs": [
        {
          "internalType": "address",
          "name": "",
          "type": "address"
        },
        {
          "internalType": "address",
          "name": "",
          "type": "address"
        }
      ],
      "name": "allowance",
      "outputs": [
        {
          "internalType": "uint256",
          "name": "",
          "type": "uint256"
        }
      ],
      "stateMutability": "view",
      "type": "function"
    },
    {
      "inputs": [
        {
          "internalType": "address",
          "name": "spender",
          "type": "address"
        },
        {
          "internalType": "uint256",
          "name": "amount",
          "type": "uint256"
        }
      ],
      "name": "approve",
      "outputs": [
        {
          "internalType": "bool",
          "name": "",
          "type": "bool"
        }
      ],
      "stateMutability": "nonpayable",
      "type": "function"
    },
    {
      "inputs": [],
      "name": "asset",
      "outputs": [
        {
          "internalType": "contract ERC20",
          "name": "",
          "type": "address"
        }
      ],
      "stateMutability": "view",
      "type": "function"
    },
    {
      "inputs": [
        {
          "internalType": "address",
          "name": "",
          "type": "address"
        }
      ],
      "name": "balanceOf",
      "outputs": [
        {
          "internalType": "uint256",
          "name": "",
          "type": "uint256"
        }
      ],
      "stateMutability": "view",
      "type": "function"
    },
    {
      "inputs": [
        {
          "internalType": "uint256",
          "name": "rvTokenAmount",
          "type": "uint256"
        }
      ],
      "name": "claimFees",
      "outputs": [],
      "stateMutability": "nonpayable",
      "type": "function"
    },
    {
      "inputs": [
        {
          "internalType": "uint256",
          "name": "shares",
          "type": "uint256"
        }
      ],
      "name": "convertToAssets",
      "outputs": [
        {
          "internalType": "uint256",
          "name": "",
          "type": "uint256"
        }
      ],
      "stateMutability": "view",
      "type": "function"
    },
    {
      "inputs": [
        {
          "internalType": "uint256",
          "name": "assets",
          "type": "uint256"
        }
      ],
      "name": "convertToShares",
      "outputs": [
        {
          "internalType": "uint256",
          "name": "",
          "type": "uint256"
        }
      ],
      "stateMutability": "view",
      "type": "function"
    },
    {
      "inputs": [],
      "name": "decimals",
      "outputs": [
        {
          "internalType": "uint8",
          "name": "",
          "type": "uint8"
        }
      ],
      "stateMutability": "view",
      "type": "function"
    },
    {
      "inputs": [
        {
          "internalType": "uint256",
          "name": "assets",
          "type": "uint256"
        },
        {
          "internalType": "address",
          "name": "receiver",
          "type": "address"
        }
      ],
      "name": "deposit",
      "outputs": [
        {
          "internalType": "uint256",
          "name": "shares",
          "type": "uint256"
        }
      ],
      "stateMutability": "nonpayable",
      "type": "function"
    },
    {
      "inputs": [
        {
          "internalType": "contract Strategy",
          "name": "strategy",
          "type": "address"
        },
        {
          "internalType": "uint256",
          "name": "underlyingAmount",
          "type": "uint256"
        }
      ],
      "name": "depositIntoStrategy",
      "outputs": [],
      "stateMutability": "nonpayable",
      "type": "function"
    },
    {
      "inputs": [],
      "name": "destroy",
      "outputs": [],
      "stateMutability": "nonpayable",
      "type": "function"
    },
    {
      "inputs": [
        {
          "internalType": "contract Strategy",
          "name": "strategy",
          "type": "address"
        }
      ],
      "name": "distrustStrategy",
      "outputs": [],
      "stateMutability": "nonpayable",
      "type": "function"
    },
    {
      "inputs": [],
      "name": "feePercent",
      "outputs": [
        {
          "internalType": "uint256",
          "name": "",
          "type": "uint256"
        }
      ],
      "stateMutability": "view",
      "type": "function"
    },
    {
      "inputs": [
        {
          "internalType": "contract Strategy",
          "name": "",
          "type": "address"
        }
      ],
      "name": "getStrategyData",
      "outputs": [
        {
          "internalType": "bool",
          "name": "trusted",
          "type": "bool"
        },
        {
          "internalType": "uint248",
          "name": "balance",
          "type": "uint248"
        }
      ],
      "stateMutability": "view",
      "type": "function"
    },
    {
      "inputs": [],
      "name": "getWithdrawalStack",
      "outputs": [
        {
          "internalType": "contract Strategy[]",
          "name": "",
          "type": "address[]"
        }
      ],
      "stateMutability": "view",
      "type": "function"
    },
    {
      "inputs": [
        {
          "internalType": "contract Strategy[]",
          "name": "strategies",
          "type": "address[]"
        }
      ],
      "name": "harvest",
      "outputs": [],
      "stateMutability": "nonpayable",
      "type": "function"
    },
    {
      "inputs": [],
      "name": "harvestDelay",
      "outputs": [
        {
          "internalType": "uint64",
          "name": "",
          "type": "uint64"
        }
      ],
      "stateMutability": "view",
      "type": "function"
    },
    {
      "inputs": [],
      "name": "harvestWindow",
      "outputs": [
        {
          "internalType": "uint128",
          "name": "",
          "type": "uint128"
        }
      ],
      "stateMutability": "view",
      "type": "function"
    },
    {
      "inputs": [],
      "name": "initialize",
      "outputs": [],
      "stateMutability": "nonpayable",
      "type": "function"
    },
    {
      "inputs": [],
      "name": "isInitialized",
      "outputs": [
        {
          "internalType": "bool",
          "name": "",
          "type": "bool"
        }
      ],
      "stateMutability": "view",
      "type": "function"
    },
    {
      "inputs": [],
      "name": "keeper",
      "outputs": [
        {
          "internalType": "address",
          "name": "",
          "type": "address"
        }
      ],
      "stateMutability": "view",
      "type": "function"
    },
    {
      "inputs": [],
      "name": "lastHarvest",
      "outputs": [
        {
          "internalType": "uint64",
          "name": "",
          "type": "uint64"
        }
      ],
      "stateMutability": "view",
      "type": "function"
    },
    {
      "inputs": [],
      "name": "lastHarvestWindowStart",
      "outputs": [
        {
          "internalType": "uint64",
          "name": "",
          "type": "uint64"
        }
      ],
      "stateMutability": "view",
      "type": "function"
    },
    {
      "inputs": [],
      "name": "lockedProfit",
      "outputs": [
        {
          "internalType": "uint256",
          "name": "",
          "type": "uint256"
        }
      ],
      "stateMutability": "view",
      "type": "function"
    },
    {
      "inputs": [
        {
          "internalType": "address",
          "name": "",
          "type": "address"
        }
      ],
      "name": "maxDeposit",
      "outputs": [
        {
          "internalType": "uint256",
          "name": "",
          "type": "uint256"
        }
      ],
      "stateMutability": "view",
      "type": "function"
    },
    {
      "inputs": [],
      "name": "maxLockedProfit",
      "outputs": [
        {
          "internalType": "uint128",
          "name": "",
          "type": "uint128"
        }
      ],
      "stateMutability": "view",
      "type": "function"
    },
    {
      "inputs": [
        {
          "internalType": "address",
          "name": "",
          "type": "address"
        }
      ],
      "name": "maxMint",
      "outputs": [
        {
          "internalType": "uint256",
          "name": "",
          "type": "uint256"
        }
      ],
      "stateMutability": "view",
      "type": "function"
    },
    {
      "inputs": [
        {
          "internalType": "address",
          "name": "owner",
          "type": "address"
        }
      ],
      "name": "maxRedeem",
      "outputs": [
        {
          "internalType": "uint256",
          "name": "",
          "type": "uint256"
        }
      ],
      "stateMutability": "view",
      "type": "function"
    },
    {
      "inputs": [
        {
          "internalType": "address",
          "name": "owner",
          "type": "address"
        }
      ],
      "name": "maxWithdraw",
      "outputs": [
        {
          "internalType": "uint256",
          "name": "",
          "type": "uint256"
        }
      ],
      "stateMutability": "view",
      "type": "function"
    },
    {
      "inputs": [
        {
          "internalType": "uint256",
          "name": "shares",
          "type": "uint256"
        },
        {
          "internalType": "address",
          "name": "receiver",
          "type": "address"
        }
      ],
      "name": "mint",
      "outputs": [
        {
          "internalType": "uint256",
          "name": "assets",
          "type": "uint256"
        }
      ],
      "stateMutability": "nonpayable",
      "type": "function"
    },
    {
      "inputs": [],
      "name": "name",
      "outputs": [
        {
          "internalType": "string",
          "name": "",
          "type": "string"
        }
      ],
      "stateMutability": "view",
      "type": "function"
    },
    {
      "inputs": [],
      "name": "nextHarvestDelay",
      "outputs": [
        {
          "internalType": "uint64",
          "name": "",
          "type": "uint64"
        }
      ],
      "stateMutability": "view",
      "type": "function"
    },
    {
      "inputs": [
        {
          "internalType": "address",
          "name": "",
          "type": "address"
        }
      ],
      "name": "nonces",
      "outputs": [
        {
          "internalType": "uint256",
          "name": "",
          "type": "uint256"
        }
      ],
      "stateMutability": "view",
      "type": "function"
    },
    {
      "inputs": [],
      "name": "otherVaultsHoldings",
      "outputs": [
        {
          "internalType": "uint256",
          "name": "",
          "type": "uint256"
        }
      ],
      "stateMutability": "view",
      "type": "function"
    },
    {
      "inputs": [],
      "name": "otherVaultsSupply",
      "outputs": [
        {
          "internalType": "uint256",
          "name": "",
          "type": "uint256"
        }
      ],
      "stateMutability": "view",
      "type": "function"
    },
    {
      "inputs": [],
      "name": "owner",
      "outputs": [
        {
          "internalType": "address",
          "name": "",
          "type": "address"
        }
      ],
      "stateMutability": "view",
      "type": "function"
    },
    {
      "inputs": [
        {
          "internalType": "address",
          "name": "owner",
          "type": "address"
        },
        {
          "internalType": "address",
          "name": "spender",
          "type": "address"
        },
        {
          "internalType": "uint256",
          "name": "value",
          "type": "uint256"
        },
        {
          "internalType": "uint256",
          "name": "deadline",
          "type": "uint256"
        },
        {
          "internalType": "uint8",
          "name": "v",
          "type": "uint8"
        },
        {
          "internalType": "bytes32",
          "name": "r",
          "type": "bytes32"
        },
        {
          "internalType": "bytes32",
          "name": "s",
          "type": "bytes32"
        }
      ],
      "name": "permit",
      "outputs": [],
      "stateMutability": "nonpayable",
      "type": "function"
    },
    {
      "inputs": [],
      "name": "popFromWithdrawalStack",
      "outputs": [],
      "stateMutability": "nonpayable",
      "type": "function"
    },
    {
      "inputs": [
        {
          "internalType": "uint256",
          "name": "assets",
          "type": "uint256"
        }
      ],
      "name": "previewDeposit",
      "outputs": [
        {
          "internalType": "uint256",
          "name": "",
          "type": "uint256"
        }
      ],
      "stateMutability": "view",
      "type": "function"
    },
    {
      "inputs": [
        {
          "internalType": "uint256",
          "name": "shares",
          "type": "uint256"
        }
      ],
      "name": "previewMint",
      "outputs": [
        {
          "internalType": "uint256",
          "name": "",
          "type": "uint256"
        }
      ],
      "stateMutability": "view",
      "type": "function"
    },
    {
      "inputs": [
        {
          "internalType": "uint256",
          "name": "shares",
          "type": "uint256"
        }
      ],
      "name": "previewRedeem",
      "outputs": [
        {
          "internalType": "uint256",
          "name": "",
          "type": "uint256"
        }
      ],
      "stateMutability": "view",
      "type": "function"
    },
    {
      "inputs": [
        {
          "internalType": "uint256",
          "name": "assets",
          "type": "uint256"
        }
      ],
      "name": "previewWithdraw",
      "outputs": [
        {
          "internalType": "uint256",
          "name": "",
          "type": "uint256"
        }
      ],
      "stateMutability": "view",
      "type": "function"
    },
    {
      "inputs": [
        {
          "internalType": "contract Strategy",
          "name": "strategy",
          "type": "address"
        }
      ],
      "name": "pushToWithdrawalStack",
      "outputs": [],
      "stateMutability": "nonpayable",
      "type": "function"
    },
    {
      "inputs": [
        {
          "internalType": "uint256",
          "name": "shares",
          "type": "uint256"
        },
        {
          "internalType": "address",
          "name": "receiver",
          "type": "address"
        },
        {
          "internalType": "address",
          "name": "owner",
          "type": "address"
        }
      ],
      "name": "redeem",
      "outputs": [
        {
          "internalType": "uint256",
          "name": "assets",
          "type": "uint256"
        }
      ],
      "stateMutability": "nonpayable",
      "type": "function"
    },
    {
      "inputs": [],
      "name": "renounceOwnership",
      "outputs": [],
      "stateMutability": "nonpayable",
      "type": "function"
    },
    {
      "inputs": [
        {
          "internalType": "uint256",
          "name": "index",
          "type": "uint256"
        },
        {
          "internalType": "contract Strategy",
          "name": "replacementStrategy",
          "type": "address"
        }
      ],
      "name": "replaceWithdrawalStackIndex",
      "outputs": [],
      "stateMutability": "nonpayable",
      "type": "function"
    },
    {
      "inputs": [
        {
          "internalType": "uint256",
          "name": "index",
          "type": "uint256"
        }
      ],
      "name": "replaceWithdrawalStackIndexWithTip",
      "outputs": [],
      "stateMutability": "nonpayable",
      "type": "function"
    },
    {
      "inputs": [
        {
          "internalType": "address",
          "name": "_bridgerton",
          "type": "address"
        }
      ],
      "name": "setBridgerton",
      "outputs": [],
      "stateMutability": "nonpayable",
      "type": "function"
    },
    {
      "inputs": [
        {
          "internalType": "uint256",
          "name": "newFeePercent",
          "type": "uint256"
        }
      ],
      "name": "setFeePercent",
      "outputs": [],
      "stateMutability": "nonpayable",
      "type": "function"
    },
    {
      "inputs": [
        {
          "internalType": "uint64",
          "name": "newHarvestDelay",
          "type": "uint64"
        }
      ],
      "name": "setHarvestDelay",
      "outputs": [],
      "stateMutability": "nonpayable",
      "type": "function"
    },
    {
      "inputs": [
        {
          "internalType": "uint128",
          "name": "newHarvestWindow",
          "type": "uint128"
        }
      ],
      "name": "setHarvestWindow",
      "outputs": [],
      "stateMutability": "nonpayable",
      "type": "function"
    },
    {
      "inputs": [
        {
          "internalType": "address",
          "name": "_newKeeper",
          "type": "address"
        }
      ],
      "name": "setNewKeeper",
      "outputs": [],
      "stateMutability": "nonpayable",
      "type": "function"
    },
    {
      "inputs": [
        {
          "internalType": "uint256",
          "name": "newTargetFloatPercent",
          "type": "uint256"
        }
      ],
      "name": "setTargetFloatPercent",
      "outputs": [],
      "stateMutability": "nonpayable",
      "type": "function"
    },
    {
      "inputs": [
        {
          "internalType": "contract Strategy[]",
          "name": "newStack",
          "type": "address[]"
        }
      ],
      "name": "setWithdrawalStack",
      "outputs": [],
      "stateMutability": "nonpayable",
      "type": "function"
    },
    {
      "inputs": [
        {
          "internalType": "uint16",
          "name": "_chainId",
          "type": "uint16"
        },
        {
          "internalType": "bytes",
          "name": "_srcAddress",
          "type": "bytes"
        },
        {
          "internalType": "uint256",
          "name": "_nonce",
          "type": "uint256"
        },
        {
          "internalType": "address",
          "name": "_token",
          "type": "address"
        },
        {
          "internalType": "uint256",
          "name": "amountLD",
          "type": "uint256"
        },
        {
          "internalType": "bytes",
          "name": "payload",
          "type": "bytes"
        }
      ],
      "name": "sgReceive",
      "outputs": [],
      "stateMutability": "nonpayable",
      "type": "function"
    },
    {
      "inputs": [
        {
          "internalType": "address",
          "name": "",
          "type": "address"
        }
      ],
      "name": "sharesPending",
      "outputs": [
        {
          "internalType": "uint256",
          "name": "",
          "type": "uint256"
        }
      ],
      "stateMutability": "view",
      "type": "function"
    },
    {
      "inputs": [
        {
          "internalType": "uint16",
          "name": "chainId",
          "type": "uint16"
        },
        {
          "internalType": "uint256",
          "name": "_amount",
          "type": "uint256"
        },
        {
          "internalType": "address",
          "name": "_vaultTo",
          "type": "address"
        }
      ],
      "name": "swap",
      "outputs": [],
      "stateMutability": "payable",
      "type": "function"
    },
    {
      "inputs": [
        {
          "internalType": "uint256",
          "name": "index1",
          "type": "uint256"
        },
        {
          "internalType": "uint256",
          "name": "index2",
          "type": "uint256"
        }
      ],
      "name": "swapWithdrawalStackIndexes",
      "outputs": [],
      "stateMutability": "nonpayable",
      "type": "function"
    },
    {
      "inputs": [],
      "name": "symbol",
      "outputs": [
        {
          "internalType": "string",
          "name": "",
          "type": "string"
        }
      ],
      "stateMutability": "view",
      "type": "function"
    },
    {
      "inputs": [],
      "name": "targetFloatPercent",
      "outputs": [
        {
          "internalType": "uint256",
          "name": "",
          "type": "uint256"
        }
      ],
      "stateMutability": "view",
      "type": "function"
    },
    {
      "inputs": [],
      "name": "thisVaultsHoldings",
      "outputs": [
        {
          "internalType": "uint256",
          "name": "underlyingHeld",
          "type": "uint256"
        }
      ],
      "stateMutability": "view",
      "type": "function"
    },
    {
      "inputs": [],
      "name": "thisVaultsSupply",
      "outputs": [
        {
          "internalType": "uint256",
          "name": "",
          "type": "uint256"
        }
      ],
      "stateMutability": "view",
      "type": "function"
    },
    {
      "inputs": [],
      "name": "totalAssets",
      "outputs": [
        {
          "internalType": "uint256",
          "name": "",
          "type": "uint256"
        }
      ],
      "stateMutability": "view",
      "type": "function"
    },
    {
      "inputs": [],
      "name": "totalFloat",
      "outputs": [
        {
          "internalType": "uint256",
          "name": "",
          "type": "uint256"
        }
      ],
      "stateMutability": "view",
      "type": "function"
    },
    {
      "inputs": [],
      "name": "totalStrategyHoldings",
      "outputs": [
        {
          "internalType": "uint256",
          "name": "",
          "type": "uint256"
        }
      ],
      "stateMutability": "view",
      "type": "function"
    },
    {
      "inputs": [],
      "name": "totalSupply",
      "outputs": [
        {
          "internalType": "uint256",
          "name": "",
          "type": "uint256"
        }
      ],
      "stateMutability": "view",
      "type": "function"
    },
    {
      "inputs": [
        {
          "internalType": "address",
          "name": "to",
          "type": "address"
        },
        {
          "internalType": "uint256",
          "name": "amount",
          "type": "uint256"
        }
      ],
      "name": "transfer",
      "outputs": [
        {
          "internalType": "bool",
          "name": "",
          "type": "bool"
        }
      ],
      "stateMutability": "nonpayable",
      "type": "function"
    },
    {
      "inputs": [
        {
          "internalType": "address",
          "name": "from",
          "type": "address"
        },
        {
          "internalType": "address",
          "name": "to",
          "type": "address"
        },
        {
          "internalType": "uint256",
          "name": "amount",
          "type": "uint256"
        }
      ],
      "name": "transferFrom",
      "outputs": [
        {
          "internalType": "bool",
          "name": "",
          "type": "bool"
        }
      ],
      "stateMutability": "nonpayable",
      "type": "function"
    },
    {
      "inputs": [
        {
          "internalType": "address",
          "name": "newOwner",
          "type": "address"
        }
      ],
      "name": "transferOwnership",
      "outputs": [],
      "stateMutability": "nonpayable",
      "type": "function"
    },
    {
      "inputs": [
        {
          "internalType": "contract Strategy",
          "name": "strategy",
          "type": "address"
        }
      ],
      "name": "trustStrategy",
      "outputs": [],
      "stateMutability": "nonpayable",
      "type": "function"
    },
    {
      "inputs": [
        {
          "internalType": "uint256",
          "name": "_virtualPrice",
          "type": "uint256"
        }
      ],
      "name": "updateVirtualPrice",
      "outputs": [],
      "stateMutability": "nonpayable",
      "type": "function"
    },
    {
      "inputs": [],
      "name": "virtualPrice",
      "outputs": [
        {
          "internalType": "uint256",
          "name": "",
          "type": "uint256"
        }
      ],
      "stateMutability": "view",
      "type": "function"
    },
    {
      "inputs": [
        {
          "internalType": "uint256",
          "name": "assets",
          "type": "uint256"
        },
        {
          "internalType": "address",
          "name": "receiver",
          "type": "address"
        },
        {
          "internalType": "address",
          "name": "owner",
          "type": "address"
        }
      ],
      "name": "withdraw",
      "outputs": [
        {
          "internalType": "uint256",
          "name": "shares",
          "type": "uint256"
        }
      ],
      "stateMutability": "nonpayable",
      "type": "function"
    },
    {
      "inputs": [
        {
          "internalType": "contract Strategy",
          "name": "strategy",
          "type": "address"
        },
        {
          "internalType": "uint256",
          "name": "underlyingAmount",
          "type": "uint256"
        }
      ],
      "name": "withdrawFromStrategy",
      "outputs": [],
      "stateMutability": "nonpayable",
      "type": "function"
    },
    {
      "inputs": [
        {
          "internalType": "uint256",
          "name": "",
          "type": "uint256"
        }
      ],
      "name": "withdrawalStack",
      "outputs": [
        {
          "internalType": "contract Strategy",
          "name": "",
          "type": "address"
        }
      ],
      "stateMutability": "view",
      "type": "function"
    },
    {
      "stateMutability": "payable",
      "type": "receive"
    }
  ],
  "bytecode": "0x6101406040523480156200001257600080fd5b5060405162004e9a38038062004e9a83398101604081905262000035916200041c565b82836001600160a01b03166306fdde036040518163ffffffff1660e01b8152600401600060405180830381865afa15801562000075573d6000803e3d6000fd5b505050506040513d6000823e601f3d908101601f191682016040526200009f9190810190620004b9565b604051602001620000b1919062000571565b604051602081830303815290604052846001600160a01b03166395d89b416040518163ffffffff1660e01b8152600401600060405180830381865afa158015620000ff573d6000803e3d6000fd5b505050506040513d6000823e601f3d908101601f19168201604052620001299190810190620004b9565b6040516020016200013b9190620005b1565b6040516020818303038152906040528181846001600160a01b031663313ce5676040518163ffffffff1660e01b8152600401602060405180830381865afa1580156200018b573d6000803e3d6000fd5b505050506040513d601f19601f82011682018060405250810190620001b19190620005dd565b8251620001c69060009060208601906200035d565b508151620001dc9060019060208501906200035d565b5060ff81166080524660a052620001f26200026f565b60c052505050506001600160a01b039190911660e0525062000214336200030b565b6001600160a01b038316610100526080516200023290600a6200071e565b61012052601380546001600160a01b039384166001600160a01b031991821617909155600d80549290931691161790555060001960025562000810565b60007f8b73c3c69bb8fe3d512ecc4cf759cc79239f7b179b0ffacaa9a75d522b39400f6000604051620002a391906200076c565b6040805191829003822060208301939093528101919091527fc89efdaa54c0f20c7adf612882df0950f5a951637e0307cdcb4c672f298b8bc660608201524660808201523060a082015260c00160405160208183030381529060405280519060200120905090565b600a80546001600160a01b038381166001600160a01b0319831681179093556040519116919082907f8be0079c531659141344cd1fd0a4f28419497f9722a3daafe3b4186f6b6457e090600090a35050565b8280546200036b906200072f565b90600052602060002090601f0160209004810192826200038f5760008555620003da565b82601f10620003aa57805160ff1916838001178555620003da565b82800160010185558215620003da579182015b82811115620003da578251825591602001919060010190620003bd565b50620003e8929150620003ec565b5090565b5b80821115620003e85760008155600101620003ed565b6001600160a01b03811681146200041957600080fd5b50565b6000806000606084860312156200043257600080fd5b83516200043f8162000403565b6020850151909350620004528162000403565b6040850151909250620004658162000403565b809150509250925092565b634e487b7160e01b600052604160045260246000fd5b60005b83811015620004a357818101518382015260200162000489565b83811115620004b3576000848401525b50505050565b600060208284031215620004cc57600080fd5b81516001600160401b0380821115620004e457600080fd5b818401915084601f830112620004f957600080fd5b8151818111156200050e576200050e62000470565b604051601f8201601f19908116603f0116810190838211818310171562000539576200053962000470565b816040528281528760208487010111156200055357600080fd5b6200056683602083016020880162000486565b979650505050505050565b65029b0bb37b9160d51b8152600082516200059481600685016020870162000486565b650815985d5b1d60d21b6006939091019283015250600c01919050565b6139bb60f11b815260008251620005d081600285016020870162000486565b9190910160020192915050565b600060208284031215620005f057600080fd5b815160ff811681146200060257600080fd5b9392505050565b634e487b7160e01b600052601160045260246000fd5b600181815b808511156200066057816000190482111562000644576200064462000609565b808516156200065257918102915b93841c939080029062000624565b509250929050565b600082620006795750600162000718565b81620006885750600062000718565b8160018114620006a15760028114620006ac57620006cc565b600191505062000718565b60ff841115620006c057620006c062000609565b50506001821b62000718565b5060208310610133831016604e8410600b8410161715620006f1575081810a62000718565b620006fd83836200061f565b806000190482111562000714576200071462000609565b0290505b92915050565b60006200060260ff84168362000668565b600181811c908216806200074457607f821691505b602082108114156200076657634e487b7160e01b600052602260045260246000fd5b50919050565b600080835481600182811c9150808316806200078957607f831692505b6020808410821415620007aa57634e487b7160e01b86526022600452602486fd5b818015620007c15760018114620007d35762000802565b60ff1986168952848901965062000802565b60008a81526020902060005b86811015620007fa5781548b820152908501908301620007df565b505084890196505b509498975050505050505050565b60805160a05160c05160e05161010051610120516145e6620008b460003960008181612c960152612cba015260008181610c4101528181611164015281816112360152818161128301528181611f02015281816128a801526131b301526000818161079a01528181611aed01528181611fdb015281816122fc0152818161233501526126cc015260006117eb015260006117bb0152600061071d01526145e66000f3fe60806040526004361061046c5760003560e01c80637fcb405e1161024a578063c5d664c611610139578063dd62ed3e116100b6578063ef8b30f71161007a578063ef8b30f714610e30578063f1a392da14610e50578063f2fde38b14610e77578063f97d2ed714610e97578063fad85a731461095457600080fd5b8063dd62ed3e14610d82578063ec523afd14610dba578063ecad956514610dda578063ed2c552114610df0578063eed74e6714610e1057600080fd5b8063ce96cb77116100fd578063ce96cb7714610cc3578063d00364be14610ce3578063d164cc1514610d22578063d505accf14610d42578063d905777e14610d6257600080fd5b8063c5d664c614610c2f578063c63d75b6146107f2578063c6e6f59214610c63578063c866983b14610c83578063c89d346014610ca357600080fd5b8063a9059cbb116101c7578063b460af941161018b578063b460af9414610b8f578063b53d095814610baf578063ba08765214610bcf578063bd662f8814610bef578063bdf06c8e14610c0f57600080fd5b8063a9059cbb14610aef578063ab8236f314610b0f578063ac68a74814610b2f578063aced166114610b4f578063b3d7f6b914610b6f57600080fd5b80638d32ef841161020e5780638d32ef8414610a665780638da5cb5b14610a865780638ea875f314610aa457806394bf804d14610aba57806395d89b4114610ada57600080fd5b80637fcb405e146109fc5780637fd6f15c14610a115780638129fc1c14610a2757806383197ef014610a3c578063841219e514610a5157600080fd5b80633644e5151161036657806360dc8fac116102e357806372d879bc116102a757806372d879bc14610954578063797ba463146109685780637b72aeb91461098f5780637ce3489b146109af5780637ecebe00146109cf57600080fd5b806360dc8fac146108c857806369f53f11146108dd5780636e553f65146108f257806370a0823114610912578063715018a61461093f57600080fd5b8063448f56b91161032a578063448f56b91461081457806344b81396146108535780634a3c3990146108685780634cdad506146108885780635f591c09146108a857600080fd5b80633644e5151461077357806338d52e0f14610788578063392e53cd146107bc5780633eaaf86b146107dd578063402d267d146107f257600080fd5b806318160ddd116103f45780632968676e116103b85780632968676e1461064b5780632e2cbbf9146106aa57806330adf81f146106d7578063313ce5671461070b57806334051c031461075157600080fd5b806318160ddd146105bf5780631c693478146105d557806323152745146105eb57806323b872dd1461060b5780632493fea61461062b57600080fd5b8063095ea7b31161043b578063095ea7b3146105045780630a28a47714610534578063136a8ce71461055457806313ff85511461058c57806316e5440a1461059f57600080fd5b806301e1d1141461047857806306fdde03146104a057806307a2d13a146104c257806307b35d1d146104e257600080fd5b3661047357005b600080fd5b34801561048457600080fd5b5061048d610eb7565b6040519081526020015b60405180910390f35b3480156104ac57600080fd5b506104b5610ec6565b6040516104979190613d43565b3480156104ce57600080fd5b5061048d6104dd366004613d56565b610f54565b3480156104ee57600080fd5b506105026104fd366004613d6f565b610f71565b005b34801561051057600080fd5b5061052461051f366004613dad565b611061565b6040519015158152602001610497565b34801561054057600080fd5b5061048d61054f366004613d56565b6110cd565b34801561056057600080fd5b5061057461056f366004613d56565b6110e4565b6040516001600160a01b039091168152602001610497565b61050261059a366004613df0565b61110e565b3480156105ab57600080fd5b506105026105ba366004613d56565b611310565b3480156105cb57600080fd5b5061048d60025481565b3480156105e157600080fd5b5061048d600e5481565b3480156105f757600080fd5b50610502610606366004613e30565b61146c565b34801561061757600080fd5b50610524610626366004613ea4565b61152b565b34801561063757600080fd5b50610502610646366004613ee5565b61160b565b34801561065757600080fd5b5061068b610666366004613f07565b60106020526000908152604090205460ff81169061010090046001600160f81b031682565b6040805192151583526001600160f81b03909116602083015201610497565b3480156106b657600080fd5b5061048d6106c5366004613f07565b60066020526000908152604090205481565b3480156106e357600080fd5b5061048d7f6e71edae12b1b97f4d1f60370fef10105fa2faae0126114a169c64845d6126c981565b34801561071757600080fd5b5061073f7f000000000000000000000000000000000000000000000000000000000000000081565b60405160ff9091168152602001610497565b34801561075d57600080fd5b50610766611755565b6040516104979190613f24565b34801561077f57600080fd5b5061048d6117b7565b34801561079457600080fd5b506105747f000000000000000000000000000000000000000000000000000000000000000081565b3480156107c857600080fd5b5060135461052490600160a01b900460ff1681565b3480156107e957600080fd5b5061048d61180d565b3480156107fe57600080fd5b5061048d61080d366004613f07565b5060001990565b34801561082057600080fd5b50600c5461083b90600160801b90046001600160401b031681565b6040516001600160401b039091168152602001610497565b34801561085f57600080fd5b5061048d611817565b34801561087457600080fd5b50610502610883366004613f07565b61187e565b34801561089457600080fd5b5061048d6108a3366004613d56565b611962565b3480156108b457600080fd5b506105026108c3366004613d56565b61196d565b3480156108d457600080fd5b506105026119b1565b3480156108e957600080fd5b5061048d611a86565b3480156108fe57600080fd5b5061048d61090d366004613f71565b611a98565b34801561091e57600080fd5b5061048d61092d366004613f07565b60036020526000908152604090205481565b34801561094b57600080fd5b50610502611b6b565b34801561096057600080fd5b50600061048d565b34801561097457600080fd5b50600c5461083b90600160c01b90046001600160401b031681565b34801561099b57600080fd5b506105026109aa366004613fa1565b611ba1565b3480156109bb57600080fd5b506105026109ca366004613d56565b611d35565b3480156109db57600080fd5b5061048d6109ea366004613f07565b60056020526000908152604090205481565b348015610a0857600080fd5b5061048d611ddd565b348015610a1d57600080fd5b5061048d600b5481565b348015610a3357600080fd5b50610502611dff565b348015610a4857600080fd5b50610502611ebd565b348015610a5d57600080fd5b5061048d611eea565b348015610a7257600080fd5b50610502610a81366004613f07565b611f75565b348015610a9257600080fd5b50600a546001600160a01b0316610574565b348015610ab057600080fd5b5061048d60095481565b348015610ac657600080fd5b5061048d610ad5366004613f71565b611fc1565b348015610ae657600080fd5b506104b5612050565b348015610afb57600080fd5b50610524610b0a366004613dad565b61205d565b348015610b1b57600080fd5b50610502610b2a36600461406c565b6120c3565b348015610b3b57600080fd5b50610502610b4a366004613d56565b612108565b348015610b5b57600080fd5b50600d54610574906001600160a01b031681565b348015610b7b57600080fd5b5061048d610b8a366004613d56565b612172565b348015610b9b57600080fd5b5061048d610baa366004614106565b612189565b348015610bbb57600080fd5b50610502610bca366004613dad565b612365565b348015610bdb57600080fd5b5061048d610bea366004614106565b61251e565b348015610bfb57600080fd5b50610502610c0a366004613d56565b6126f3565b348015610c1b57600080fd5b50610502610c2a366004613dad565b61279e565b348015610c3b57600080fd5b506105747f000000000000000000000000000000000000000000000000000000000000000081565b348015610c6f57600080fd5b5061048d610c7e366004613d56565b612978565b348015610c8f57600080fd5b50610502610c9e366004613f07565b61298f565b348015610caf57600080fd5b50610502610cbe366004613e30565b612a03565b348015610ccf57600080fd5b5061048d610cde366004613f07565b612e1f565b348015610cef57600080fd5b50601154610d0a90600160801b90046001600160801b031681565b6040516001600160801b039091168152602001610497565b348015610d2e57600080fd5b50610502610d3d366004613f07565b612e2d565b348015610d4e57600080fd5b50610502610d5d36600461413d565b612f08565b348015610d6e57600080fd5b5061048d610d7d366004613f07565b613159565b348015610d8e57600080fd5b5061048d610d9d3660046141b4565b600460209081526000928352604080842090915290825290205481565b348015610dc657600080fd5b50610502610dd5366004613f07565b613187565b348015610de657600080fd5b5061048d600f5481565b348015610dfc57600080fd5b50610502610e0b366004613f71565b6132d3565b348015610e1c57600080fd5b5060115461083b906001600160401b031681565b348015610e3c57600080fd5b5061048d610e4b366004613d56565b61339e565b348015610e5c57600080fd5b5060115461083b90600160401b90046001600160401b031681565b348015610e8357600080fd5b50610502610e92366004613f07565b6133a9565b348015610ea357600080fd5b50600c54610d0a906001600160801b031681565b6000610ec1611ddd565b905090565b60008054610ed3906141e2565b80601f0160208091040260200160405190810160405280929190818152602001828054610eff906141e2565b8015610f4c5780601f10610f2157610100808354040283529160200191610f4c565b820191906000526020600020905b815481529060010190602001808311610f2f57829003601f168201915b505050505081565b6000610f6b6009548361344190919063ffffffff16565b92915050565b600a546001600160a01b03163314610fa45760405162461bcd60e51b8152600401610f9b9061421d565b60405180910390fd5b600c54600160801b90046001600160401b03166001600160801b03821611156110015760405162461bcd60e51b815260206004820152600f60248201526e57494e444f575f544f4f5f4c4f4e4760881b6044820152606401610f9b565b600c80546fffffffffffffffffffffffffffffffff19166001600160801b03831690811790915560405190815233907ff61ebd3c01f656aba479c738a8744215d6f1ec2c19169500f3bff0a9d8374ce1906020015b60405180910390a250565b3360008181526004602090815260408083206001600160a01b038716808552925280832085905551919290917f8c5be1e5ebec7d5bd14f71427d1e84f3dd0314c0f7b2291e5b200ac8c7c3b925906110bc9086815260200190565b60405180910390a350600192915050565b6000610f6b6009548361345d90919063ffffffff16565b601281815481106110f457600080fd5b6000918252602090912001546001600160a01b0316905081565b600a546001600160a01b03163314806111315750600d546001600160a01b031633145b61114d5760405162461bcd60e51b8152600401610f9b90614252565b6040516370a0823160e01b815230600482015282907f00000000000000000000000000000000000000000000000000000000000000006001600160a01b0316906370a0823190602401602060405180830381865afa1580156111b3573d6000803e3d6000fd5b505050506040513d601f19601f820116820180604052508101906111d79190614278565b10156112255760405162461bcd60e51b815260206004820152601e60248201527f4e6f7420656e6f7567682066756e647320666f722074686174207377617000006044820152606401610f9b565b60135461125f906001600160a01b037f00000000000000000000000000000000000000000000000000000000000000008116911684613472565b60135460405163edd36beb60e01b815261ffff851660048201526001600160a01b037f0000000000000000000000000000000000000000000000000000000000000000811660248301526044820185905283811660648301529091169063edd36beb90479060840160206040518083038185885af11580156112e5573d6000803e3d6000fd5b50505050506040513d601f19601f8201168201806040525081019061130a9190614291565b50505050565b600a546001600160a01b0316331461133a5760405162461bcd60e51b8152600401610f9b9061421d565b601280546000919061134e906001906142c9565b8154811061135e5761135e6142e0565b6000918252602082200154601280546001600160a01b039092169350908490811061138b5761138b6142e0565b600091825260209091200154601280546001600160a01b0390921692508391859081106113ba576113ba6142e0565b9060005260206000200160006101000a8154816001600160a01b0302191690836001600160a01b0316021790555060128054806113f9576113f96142f6565b600082815260209020810160001990810180546001600160a01b03191690550190556040516001600160a01b03838116919083169033907f473192fe0c9f1496de6fb6e5c8d6ad88651b595d4e00ff84da3824c86bd8fc0c9061145f9088815260200190565b60405180910390a4505050565b600a546001600160a01b031633146114965760405162461bcd60e51b8152600401610f9b9061421d565b60208111156114d75760405162461bcd60e51b815260206004820152600d60248201526c535441434b5f544f4f5f42494760981b6044820152606401610f9b565b6114e360128383613c87565b50336001600160a01b03167ff110ec6f3f76ff60fb27d301a8a5d810ca482392df21dc15cdb1492922b8b0b3838360405161151f92919061430c565b60405180910390a25050565b6001600160a01b038316600090815260046020908152604080832033845290915281205460001981146115875761156283826142c9565b6001600160a01b03861660009081526004602090815260408083203384529091529020555b6001600160a01b038516600090815260036020526040812080548592906115af9084906142c9565b90915550506001600160a01b0380851660008181526003602052604090819020805487019055519091871690600080516020614591833981519152906115f89087815260200190565b60405180910390a3506001949350505050565b600a546001600160a01b031633146116355760405162461bcd60e51b8152600401610f9b9061421d565b60006012838154811061164a5761164a6142e0565b6000918252602082200154601280546001600160a01b0390921693509084908110611677576116776142e0565b600091825260209091200154601280546001600160a01b0390921692508291869081106116a6576116a66142e0565b9060005260206000200160006101000a8154816001600160a01b0302191690836001600160a01b0316021790555081601284815481106116e8576116e86142e0565b60009182526020918290200180546001600160a01b0319166001600160a01b03938416179055604080518781529182018690528483169284169133917f5d605201cae91441cf473a96f9217ad688f1ee9d42c1cfb6ed1be9fb50576c30910160405180910390a450505050565b606060128054806020026020016040519081016040528092919081815260200182805480156117ad57602002820191906000526020600020905b81546001600160a01b0316815260019091019060200180831161178f575b5050505050905090565b60007f000000000000000000000000000000000000000000000000000000000000000046146117e857610ec16134eb565b507f000000000000000000000000000000000000000000000000000000000000000090565b6000610ec1611a86565b601154600c546000916001600160401b03600160401b909104811691600160801b900416808201421061184d5760009250505090565b601154600160801b90046001600160801b031681428490038202816118745761187461435a565b0490039392505050565b600a546001600160a01b031633146118a85760405162461bcd60e51b8152600401610f9b9061421d565b6012546020116118e75760405162461bcd60e51b815260206004820152600a60248201526914d51050d2d7d195531360b21b6044820152606401610f9b565b6012805460018101825560009182527fbb8a6a4669ba250d26cd7a459eca9d215f8307e33aebe50379bc5a3617ec34440180546001600160a01b0319166001600160a01b038416908117909155604051909133917f5abc18e64ea5219f39a4afb4519bdb3d895e6ec8282ec44db4c253289abdab1b9190a350565b6000610f6b82610f54565b600a546001600160a01b03163314806119905750600d546001600160a01b031633145b6119ac5760405162461bcd60e51b8152600401610f9b90614252565b600955565b600a546001600160a01b031633146119db5760405162461bcd60e51b8152600401610f9b9061421d565b60128054600091906119ef906001906142c9565b815481106119ff576119ff6142e0565b600091825260209091200154601280546001600160a01b0390921692509080611a2a57611a2a6142f6565b600082815260208120820160001990810180546001600160a01b03191690559091019091556040516001600160a01b0383169133917f61d23abf676b955085fda50d45f510cdab69e13e63afebdde7f4453b529fbfdc9190a350565b6000600754600254610ec19190614370565b6000611aa38361339e565b905080611ae05760405162461bcd60e51b815260206004820152600b60248201526a5a45524f5f53484152455360a81b6044820152606401610f9b565b611b156001600160a01b037f000000000000000000000000000000000000000000000000000000000000000016333086613585565b611b1f8282613619565b60408051848152602081018390526001600160a01b0384169133917fdcbc1c05240f31ff3ad067ef1ee35ce4997762752e3a095284754544f4c709d791015b60405180910390a3610f6b565b600a546001600160a01b03163314611b955760405162461bcd60e51b8152600401610f9b9061421d565b611b9f6000613673565b565b600a546001600160a01b03163314611bcb5760405162461bcd60e51b8152600401610f9b9061421d565b6001600160401b038116611c185760405162461bcd60e51b815260206004820152601460248201527344454c41595f43414e4e4f545f42455f5a45524f60601b6044820152606401610f9b565b6301e13380816001600160401b03161115611c665760405162461bcd60e51b815260206004820152600e60248201526d44454c41595f544f4f5f4c4f4e4760901b6044820152606401610f9b565b600c54600160801b90046001600160401b0316611cda57600c805467ffffffffffffffff60801b1916600160801b6001600160401b0384169081029190911790915560405190815233907fe893fa207c5a5094cad036347b877c23ebecd9df94ae0426f287040c13220b3f90602001611056565b600c80546001600160c01b0316600160c01b6001600160401b0384169081029190911790915560405190815233907f342b344c0ac2ffff8f84b1d82d8235a2401a0accf4666f1fec4a1c3cdf1d29e790602001611056565b50565b600a546001600160a01b03163314611d5f5760405162461bcd60e51b8152600401610f9b9061421d565b670de0b6b3a7640000811115611da65760405162461bcd60e51b815260206004820152600c60248201526b08c8a8abea89e9ebe90928e960a31b6044820152606401610f9b565b600b81905560405181815233907fec370615cc81fb334e5566fbc80664d9082377bf59288d64a79f3fbecf4323a990602001611056565b6000611de7611817565b600f54039050611df5611eea565b610ec19082614370565b600a546001600160a01b03163314611e295760405162461bcd60e51b8152600401610f9b9061421d565b601354600160a01b900460ff1615611e795760405162461bcd60e51b81526020600482015260136024820152721053149150511657d253925512505312569151606a1b6044820152606401610f9b565b6013805460ff60a01b1916600160a01b1790556000600281905560405133917f908408e307fc569b417f6cbec5d5a06f44a0a505ac0479b47d421a4b2fd6a1e691a2565b600a546001600160a01b03163314611ee75760405162461bcd60e51b8152600401610f9b9061421d565b33ff5b6040516370a0823160e01b81523060048201526000907f00000000000000000000000000000000000000000000000000000000000000006001600160a01b0316906370a0823190602401602060405180830381865afa158015611f51573d6000803e3d6000fd5b505050506040513d601f19601f82011682018060405250810190610ec19190614278565b600a546001600160a01b03163314611f9f5760405162461bcd60e51b8152600401610f9b9061421d565b601380546001600160a01b0319166001600160a01b0392909216919091179055565b6000611fcc83612172565b90506120036001600160a01b037f000000000000000000000000000000000000000000000000000000000000000016333084613585565b61200d8284613619565b60408051828152602081018590526001600160a01b0384169133917fdcbc1c05240f31ff3ad067ef1ee35ce4997762752e3a095284754544f4c709d79101611b5e565b60018054610ed3906141e2565b3360009081526003602052604081208054839190839061207e9084906142c9565b90915550506001600160a01b03831660008181526003602052604090819020805485019055513390600080516020614591833981519152906110bc9086815260200190565b7ff384e0e88816a3074d0d64562559cbd89504e99f3496997dd6dbe50f7cf8c0a1868685856040516120f89493929190614388565b60405180910390a1505050505050565b600a546001600160a01b031633146121325760405162461bcd60e51b8152600401610f9b9061421d565b60405181815233907f9493e5bbe4e8e0ac67284469a2d677403d0378a85a59e341d3abc433d0d9a2099060200160405180910390a2611d32303383613472565b6000610f6b600954836136c590919063ffffffff16565b6000612194846110cd565b9050336001600160a01b0383161461224b576001600160a01b0382166000908152600460209081526040808320338452909152902054818110156122115760405162461bcd60e51b81526020600482015260146024820152734e6f7420656e6f75676820416c6c6f77616e636560601b6044820152606401610f9b565b60001981146122495761222482826142c9565b6001600160a01b03841660009081526004602090815260408083203384529091529020555b505b6001600160a01b0382166000908152600360205260409020548111156122835760405162461bcd60e51b8152600401610f9b906143c1565b60008061229086866136da565b9150915061229e84846137bf565b60408051878152602081018590526001600160a01b03808716929088169133917ffbde797d201c681b91056529119e0b02407c7bb96a4a2c75c01fc9667232c8db910160405180910390a48115612328576123236001600160a01b037f0000000000000000000000000000000000000000000000000000000000000000168688613472565b61235c565b61235c6001600160a01b037f0000000000000000000000000000000000000000000000000000000000000000168683613472565b50509392505050565b600a546001600160a01b0316331461238f5760405162461bcd60e51b8152600401610f9b9061421d565b6001600160a01b03821660009081526010602052604090205460ff166123c75760405162461bcd60e51b8152600401610f9b90614404565b6123d081613821565b6001600160a01b0383166000908152601060205260409020805460019061240690849061010090046001600160f81b0316614430565b82546001600160f81b039182166101009390930a928302919092021990911617905550600f805482900390556040518181526001600160a01b0383169033907f8d851b682e239b1de720e92e5c5cffdb72d353104cc63dc6ed144d7080217fbe9060200160405180910390a3604051632e1a7d4d60e01b8152600481018290526001600160a01b03831690632e1a7d4d906024016020604051808303816000875af11580156124b9573d6000803e3d6000fd5b505050506040513d601f19601f820116820180604052508101906124dd9190614278565b1561251a5760405162461bcd60e51b815260206004820152600d60248201526c14915111515357d19052531151609a1b6044820152606401610f9b565b5050565b6000336001600160a01b038316146125d5576001600160a01b03821660009081526004602090815260408083203384529091529020548481101561259b5760405162461bcd60e51b81526020600482015260146024820152734e6f7420656e6f75676820416c6c6f77616e636560601b6044820152606401610f9b565b60001981146125d3576125ae85826142c9565b6001600160a01b03841660009081526004602090815260408083203384529091529020555b505b6125de84611962565b90508061261b5760405162461bcd60e51b815260206004820152600b60248201526a5a45524f5f41535345545360a81b6044820152606401610f9b565b6001600160a01b0382166000908152600360205260409020548411156126535760405162461bcd60e51b8152600401610f9b906143c1565b60008061266083866136da565b9150915061266e84876137bf565b60408051848152602081018890526001600160a01b03808716929088169133917ffbde797d201c681b91056529119e0b02407c7bb96a4a2c75c01fc9667232c8db910160405180910390a48115612328576123236001600160a01b037f0000000000000000000000000000000000000000000000000000000000000000168685613472565b600a546001600160a01b0316331461271d5760405162461bcd60e51b8152600401610f9b9061421d565b670de0b6b3a76400008111156127675760405162461bcd60e51b815260206004820152600f60248201526e0a882a48e8aa8bea89e9ebe90928e9608b1b6044820152606401610f9b565b600e81905560405181815233907f95bc4480b51f4860106d42850bcae222cf3303fb2b7d433e896205e0ebefe36990602001611056565b600a546001600160a01b031633146127c85760405162461bcd60e51b8152600401610f9b9061421d565b6001600160a01b03821660009081526010602052604090205460ff166128005760405162461bcd60e51b8152600401610f9b90614404565b80600f60008282546128129190614370565b90915550612821905081613821565b6001600160a01b0383166000818152601060205260409081902080546001600160f81b0361010080830482169096011690940260ff90941693909317909255905133907f49e9138fe0dacf001ea634236e38aa8bd229efd55ec4d7975228d679db6ce8f9906128939085815260200190565b60405180910390a36128cf6001600160a01b037f000000000000000000000000000000000000000000000000000000000000000016838361383b565b60405163b6b55f2560e01b8152600481018290526001600160a01b0383169063b6b55f25906024016020604051808303816000875af1158015612916573d6000803e3d6000fd5b505050506040513d601f19601f8201168201806040525081019061293a9190614278565b1561251a5760405162461bcd60e51b815260206004820152600e60248201526d19195c1bdcda5d17d1905253115160921b6044820152606401610f9b565b6000610f6b600954836138b390919063ffffffff16565b600a546001600160a01b031633146129b95760405162461bcd60e51b8152600401610f9b9061421d565b6001600160a01b038116600081815260106020526040808220805460ff191690555133917fff8fe190f3935e9e8681ce444b08be824a6be3e5184465ddbd710cc4f1a9f2f291a350565b600a546001600160a01b03163314612a2d5760405162461bcd60e51b8152600401610f9b9061421d565b600c54601154612a57916001600160401b03600160801b909104811691600160401b900416614458565b6001600160401b03164210612a87576011805467ffffffffffffffff1916426001600160401b0316179055612af4565b600c54601154612aa9916001600160801b0316906001600160401b0316614483565b6001600160801b0316421115612af45760405162461bcd60e51b815260206004820152601060248201526f4241445f484152564553545f54494d4560801b6044820152606401610f9b565b600f54600081815b84811015612c70576000868683818110612b1857612b186142e0565b9050602002016020810190612b2d9190613f07565b6001600160a01b03811660009081526010602052604090205490915060ff16612b685760405162461bcd60e51b8152600401610f9b90614404565b6001600160a01b0381166000818152601060209081526040808320548151630efbb5cb60e41b815291516101009091046001600160f81b0316949263efbb5cb092600480820193918290030181865afa158015612bc9573d6000803e3d6000fd5b505050506040513d601f19601f82011682018060405250810190612bed9190614278565b9050612bf881613821565b6001600160a01b038416600090815260106020526040902080546001600160f81b03929092166101000260ff90921691909117905581612c388287614370565b612c4291906142c9565b9450818111612c52576000612c56565b8181035b860195505050508080612c68906144a5565b915050612afc565b50600b54600090612c8b908490670de0b6b3a76400006138c4565b9050612ceb30612ce67f0000000000000000000000000000000000000000000000000000000000000000612cde7f0000000000000000000000000000000000000000000000000000000000000000610f54565b8591906138c4565b613619565b612d118184612cf8611817565b612d029190614370565b612d0c91906142c9565b6138e3565b60118054600f8590556001600160401b03428116600160401b026fffffffffffffffff0000000000000000196001600160801b0395909516600160801b029490941691161791909117905560405133907f69e9c71f6799744a94d9897e77c3ed426cc2f92ba0ef3300785368209b6f4b2d90612d90908990899061430c565b60405180910390a2600c54600160c01b90046001600160401b03168015612e1657600c80546001600160801b0316600160801b6001600160401b0384169081026001600160c01b03169190911790915560405190815233907fe893fa207c5a5094cad036347b877c23ebecd9df94ae0426f287040c13220b3f9060200160405180910390a25b50505050505050565b6000610f6b6104dd83613159565b600a546001600160a01b0316331480612e505750600d546001600160a01b031633145b612e6c5760405162461bcd60e51b8152600401610f9b90614252565b6001600160a01b038116612eb45760405162461bcd60e51b815260206004820152600f60248201526e496e76616c6964204164647265737360881b6044820152606401610f9b565b600d80546001600160a01b0319166001600160a01b0383169081179091556040519081527f0425bcd291db1d48816f2a98edc7ecaf6dd5c64b973d9e4b3b6b750763dc6c2e9060200160405180910390a150565b42841015612f585760405162461bcd60e51b815260206004820152601760248201527f5045524d49545f444541444c494e455f455850495245440000000000000000006044820152606401610f9b565b6000612f626117b7565b6001600160a01b0389811660008181526005602090815260409182902080546001810190915582517f6e71edae12b1b97f4d1f60370fef10105fa2faae0126114a169c64845d6126c98184015280840194909452938c166060840152608083018b905260a083019390935260c08083018a90528151808403909101815260e08301909152805192019190912061190160f01b6101008301526101028201929092526101228101919091526101420160408051601f198184030181528282528051602091820120600080855291840180845281905260ff88169284019290925260608301869052608083018590529092509060019060a0016020604051602081039080840390855afa15801561307b573d6000803e3d6000fd5b5050604051601f1901519150506001600160a01b038116158015906130b15750886001600160a01b0316816001600160a01b0316145b6130ee5760405162461bcd60e51b815260206004820152600e60248201526d24a72b20a624a22fa9a4a3a722a960911b6044820152606401610f9b565b6001600160a01b0390811660009081526004602090815260408083208b8516808552908352928190208a905551898152919350918a16917f8c5be1e5ebec7d5bd14f71427d1e84f3dd0314c0f7b2291e5b200ac8c7c3b925910160405180910390a350505050505050565b6001600160a01b0381166000908152600660209081526040808320546003909252822054610f6b91906142c9565b600a546001600160a01b031633146131b15760405162461bcd60e51b8152600401610f9b9061421d565b7f00000000000000000000000000000000000000000000000000000000000000006001600160a01b0316816001600160a01b0316636f307dc36040518163ffffffff1660e01b8152600401602060405180830381865afa158015613219573d6000803e3d6000fd5b505050506040513d601f19601f8201168201806040525081019061323d91906144c0565b6001600160a01b0316146132865760405162461bcd60e51b815260206004820152601060248201526f57524f4e475f554e4445524c59494e4760801b6044820152606401610f9b565b6001600160a01b038116600081815260106020526040808220805460ff191660011790555133917f2fc1f5b589e399a463bf89605c1539bdd9878a9a3acd089abeca7a15e1fbe6ec91a350565b600a546001600160a01b031633146132fd5760405162461bcd60e51b8152600401610f9b9061421d565b600060128381548110613312576133126142e0565b600091825260209091200154601280546001600160a01b039092169250839185908110613341576133416142e0565b60009182526020918290200180546001600160a01b0319166001600160a01b039384161790556040518581528483169284169133917f6b3d5cb176c4387df974c7528104dc97592d836de95196de9f68adbb6f46d5ac910161145f565b6000610f6b82612978565b600a546001600160a01b031633146133d35760405162461bcd60e51b8152600401610f9b9061421d565b6001600160a01b0381166134385760405162461bcd60e51b815260206004820152602660248201527f4f776e61626c653a206e6577206f776e657220697320746865207a65726f206160448201526564647265737360d01b6064820152608401610f9b565b611d3281613673565b60006134568383670de0b6b3a76400006138c4565b9392505050565b600061345683670de0b6b3a7640000846138f9565b600060405163a9059cbb60e01b81526001600160a01b03841660048201528260248201526000806044836000895af19150506134ad81613927565b61130a5760405162461bcd60e51b815260206004820152600f60248201526e1514905394d1915497d19052531151608a1b6044820152606401610f9b565b60007f8b73c3c69bb8fe3d512ecc4cf759cc79239f7b179b0ffacaa9a75d522b39400f600060405161351d91906144dd565b6040805191829003822060208301939093528101919091527fc89efdaa54c0f20c7adf612882df0950f5a951637e0307cdcb4c672f298b8bc660608201524660808201523060a082015260c00160405160208183030381529060405280519060200120905090565b60006040516323b872dd60e01b81526001600160a01b03851660048201526001600160a01b038416602482015282604482015260008060648360008a5af19150506135cf81613927565b6136125760405162461bcd60e51b81526020600482015260146024820152731514905394d1915497d19493d357d1905253115160621b6044820152606401610f9b565b5050505050565b806002600082825461362b9190614370565b90915550506001600160a01b03821660008181526003602090815260408083208054860190555184815260008051602061459183398151915291015b60405180910390a35050565b600a80546001600160a01b038381166001600160a01b0319831681179093556040519116919082907f8be0079c531659141344cd1fd0a4f28419497f9722a3daafe3b4186f6b6457e090600090a35050565b60006134568383670de0b6b3a76400006138f9565b6000806136e5611ddd565b9050808411156137ab576008805460018101825560009182527ff3f7a9fe364faab93b216da50a3214154f22a0a2b415b23a84c8169e8b636ee30180546001600160a01b0319166001600160a01b0386161790559150801561374a5761374a8161396e565b6000613759610c7e83876142c9565b6001600160a01b038516600090815260066020526040812080549293508392909190613786908490614370565b92505081905550806007600082825461379f9190614370565b909155506137b8915050565b600191506137b88461396e565b9250929050565b6001600160a01b038216600090815260036020526040812080548392906137e79084906142c9565b90915550506002805482900390556040518181526000906001600160a01b0384169060008051602061459183398151915290602001613667565b60006001600160f81b0382111561383757600080fd5b5090565b600060405163095ea7b360e01b81526001600160a01b03841660048201528260248201526000806044836000895af191505061387681613927565b61130a5760405162461bcd60e51b815260206004820152600e60248201526d1054141493d59157d1905253115160921b6044820152606401610f9b565b600061345683670de0b6b3a7640000845b8282028115158415858304851417166138dc57600080fd5b0492915050565b60006001600160801b0382111561383757600080fd5b82820281151584158583048514171661391157600080fd5b6001826001830304018115150290509392505050565b60003d8261393957806000803e806000fd5b80602081146139515780156139625760009250613967565b816000803e60005115159250613967565b600192505b5050919050565b6000613978611eea565b90508082111561251a5760006139a3600e5484613993610eb7565b61399d91906142c9565b90613441565b905060006139b183856142c9565b905061130a6139c08383614370565b60125481906000906139d4906001906142c9565b90505b6000601282815481106139ec576139ec6142e0565b60009182526020808320909101546001600160a01b031680835260109091526040909120549091506001600160f81b036101008204169060ff161580613a30575080155b15613aa6576012805480613a4657613a466142f6565b600082815260208120820160001990810180546001600160a01b03191690559091019091556040516001600160a01b0384169133917f61d23abf676b955085fda50d45f510cdab69e13e63afebdde7f4453b529fbfdc9190a35050613c67565b6000848211613ab55781613ab7565b845b9050808203613ac581613821565b6001600160a01b0385166000818152601060205260409081902080546001600160f81b03949094166101000260ff909416939093179092559051968390039633907f8d851b682e239b1de720e92e5c5cffdb72d353104cc63dc6ed144d7080217fbe90613b359086815260200190565b60405180910390a3604051632e1a7d4d60e01b8152600481018390526001600160a01b03851690632e1a7d4d906024016020604051808303816000875af1158015613b84573d6000803e3d6000fd5b505050506040513d601f19601f82011682018060405250810190613ba89190614278565b15613be55760405162461bcd60e51b815260206004820152600d60248201526c14915111515357d19052531151609a1b6044820152606401610f9b565b80613c55576012805480613bfb57613bfb6142f6565b600082815260208120820160001990810180546001600160a01b03191690559091019091556040516001600160a01b0386169133917f61d23abf676b955085fda50d45f510cdab69e13e63afebdde7f4453b529fbfdc9190a35b5084613c6357505050613c79565b5050505b80613c7181614579565b9150506139d7565b5050600f8054919091039055565b828054828255906000526020600020908101928215613cda579160200282015b82811115613cda5781546001600160a01b0319166001600160a01b03843516178255602090920191600190910190613ca7565b506138379291505b808211156138375760008155600101613ce2565b6000815180845260005b81811015613d1c57602081850181015186830182015201613d00565b81811115613d2e576000602083870101525b50601f01601f19169290920160200192915050565b6020815260006134566020830184613cf6565b600060208284031215613d6857600080fd5b5035919050565b600060208284031215613d8157600080fd5b81356001600160801b038116811461345657600080fd5b6001600160a01b0381168114611d3257600080fd5b60008060408385031215613dc057600080fd5b8235613dcb81613d98565b946020939093013593505050565b803561ffff81168114613deb57600080fd5b919050565b600080600060608486031215613e0557600080fd5b613e0e84613dd9565b9250602084013591506040840135613e2581613d98565b809150509250925092565b60008060208385031215613e4357600080fd5b82356001600160401b0380821115613e5a57600080fd5b818501915085601f830112613e6e57600080fd5b813581811115613e7d57600080fd5b8660208260051b8501011115613e9257600080fd5b60209290920196919550909350505050565b600080600060608486031215613eb957600080fd5b8335613ec481613d98565b92506020840135613ed481613d98565b929592945050506040919091013590565b60008060408385031215613ef857600080fd5b50508035926020909101359150565b600060208284031215613f1957600080fd5b813561345681613d98565b6020808252825182820181905260009190848201906040850190845b81811015613f655783516001600160a01b031683529284019291840191600101613f40565b50909695505050505050565b60008060408385031215613f8457600080fd5b823591506020830135613f9681613d98565b809150509250929050565b600060208284031215613fb357600080fd5b81356001600160401b038116811461345657600080fd5b634e487b7160e01b600052604160045260246000fd5b600082601f830112613ff157600080fd5b81356001600160401b038082111561400b5761400b613fca565b604051601f8301601f19908116603f0116810190828211818310171561403357614033613fca565b8160405283815286602085880101111561404c57600080fd5b836020870160208301376000602085830101528094505050505092915050565b60008060008060008060c0878903121561408557600080fd5b61408e87613dd9565b955060208701356001600160401b03808211156140aa57600080fd5b6140b68a838b01613fe0565b965060408901359550606089013591506140cf82613d98565b9093506080880135925060a088013590808211156140ec57600080fd5b506140f989828a01613fe0565b9150509295509295509295565b60008060006060848603121561411b57600080fd5b83359250602084013561412d81613d98565b91506040840135613e2581613d98565b600080600080600080600060e0888a03121561415857600080fd5b873561416381613d98565b9650602088013561417381613d98565b95506040880135945060608801359350608088013560ff8116811461419757600080fd5b9699959850939692959460a0840135945060c09093013592915050565b600080604083850312156141c757600080fd5b82356141d281613d98565b91506020830135613f9681613d98565b600181811c908216806141f657607f821691505b6020821081141561421757634e487b7160e01b600052602260045260246000fd5b50919050565b6020808252818101527f4f776e61626c653a2063616c6c6572206973206e6f7420746865206f776e6572604082015260600190565b6020808252600c908201526b15539055551213d49256915160a21b604082015260600190565b60006020828403121561428a57600080fd5b5051919050565b6000602082840312156142a357600080fd5b8151801515811461345657600080fd5b634e487b7160e01b600052601160045260246000fd5b6000828210156142db576142db6142b3565b500390565b634e487b7160e01b600052603260045260246000fd5b634e487b7160e01b600052603160045260246000fd5b60208082528181018390526000908460408401835b8681101561434f57823561433481613d98565b6001600160a01b031682529183019190830190600101614321565b509695505050505050565b634e487b7160e01b600052601260045260246000fd5b60008219821115614383576143836142b3565b500190565b61ffff851681526080602082015260006143a56080830186613cf6565b6001600160a01b03949094166040830152506060015292915050565b60208082526023908201527f4e6f7420656e6f7567682073686172657320666f72207468697320576974686460408201526272617760e81b606082015260800190565b602080825260129082015271554e545255535445445f535452415445475960701b604082015260600190565b60006001600160f81b0383811690831681811015614450576144506142b3565b039392505050565b60006001600160401b0380831681851680830382111561447a5761447a6142b3565b01949350505050565b60006001600160801b0380831681851680830382111561447a5761447a6142b3565b60006000198214156144b9576144b96142b3565b5060010190565b6000602082840312156144d257600080fd5b815161345681613d98565b600080835481600182811c9150808316806144f957607f831692505b602080841082141561451957634e487b7160e01b86526022600452602486fd5b81801561452d576001811461453e5761456b565b60ff1986168952848901965061456b565b60008a81526020902060005b868110156145635781548b82015290850190830161454a565b505084890196505b509498975050505050505050565b600081614588576145886142b3565b50600019019056feddf252ad1be2c89b69c2b068fc378daa952ba7f163c4a11628f55a4df523b3efa264697066735822122027ccb3ebe95939157cfb7d7a38269a30ebffcb8327230c40140bf8f11937221164736f6c634300080a0033",
  "linkReferences": {},
  "deployedLinkReferences": {}
}