{
  "_format": "hh-sol-artifact-1",
  "contractName": "Strategy",
  "sourceName": "contracts/Strategies/StratExample.sol",
  "abi": [
    {
      "inputs": [
        {
          "internalType": "address",
          "name": "_vault",
          "type": "address"
        }
      ],
      "stateMutability": "nonpayable",
      "type": "constructor"
    },
    {
      "anonymous": false,
      "inputs": [],
      "name": "EmergencyExitEnabled",
      "type": "event"
    },
    {
      "anonymous": false,
      "inputs": [
        {
          "indexed": false,
          "internalType": "address",
          "name": "newOwner",
          "type": "address"
        }
      ],
      "name": "UpdatedOwner",
      "type": "event"
    },
    {
      "inputs": [],
      "name": "currentDebt",
      "outputs": [
        {
          "internalType": "uint256",
          "name": "",
          "type": "uint256"
        }
      ],
      "stateMutability": "view",
      "type": "function"
    },
    {
      "inputs": [
        {
          "internalType": "uint256",
          "name": "amount",
          "type": "uint256"
        }
      ],
      "name": "deposit",
      "outputs": [
        {
          "internalType": "uint256",
          "name": "",
          "type": "uint256"
        }
      ],
      "stateMutability": "nonpayable",
      "type": "function"
    },
    {
      "inputs": [],
      "name": "emergencyExit",
      "outputs": [
        {
          "internalType": "bool",
          "name": "",
          "type": "bool"
        }
      ],
      "stateMutability": "view",
      "type": "function"
    },
    {
      "inputs": [],
      "name": "estimatedTotalAssets",
      "outputs": [
        {
          "internalType": "uint256",
          "name": "",
          "type": "uint256"
        }
      ],
      "stateMutability": "view",
      "type": "function"
    },
    {
      "inputs": [
        {
          "internalType": "uint256",
          "name": "_amtInWei",
          "type": "uint256"
        }
      ],
      "name": "ethTounderlying",
      "outputs": [
        {
          "internalType": "uint256",
          "name": "",
          "type": "uint256"
        }
      ],
      "stateMutability": "view",
      "type": "function"
    },
    {
      "inputs": [],
      "name": "isActive",
      "outputs": [
        {
          "internalType": "bool",
          "name": "",
          "type": "bool"
        }
      ],
      "stateMutability": "view",
      "type": "function"
    },
    {
      "inputs": [
        {
          "internalType": "address",
          "name": "_newStrategy",
          "type": "address"
        }
      ],
      "name": "migrate",
      "outputs": [],
      "stateMutability": "nonpayable",
      "type": "function"
    },
    {
      "inputs": [],
      "name": "name",
      "outputs": [
        {
          "internalType": "string",
          "name": "",
          "type": "string"
        }
      ],
      "stateMutability": "pure",
      "type": "function"
    },
    {
      "inputs": [],
      "name": "owner",
      "outputs": [
        {
          "internalType": "address",
          "name": "",
          "type": "address"
        }
      ],
      "stateMutability": "view",
      "type": "function"
    },
    {
      "inputs": [],
      "name": "setEmergencyExit",
      "outputs": [],
      "stateMutability": "nonpayable",
      "type": "function"
    },
    {
      "inputs": [
        {
          "internalType": "address",
          "name": "_owner",
          "type": "address"
        }
      ],
      "name": "setOwner",
      "outputs": [],
      "stateMutability": "nonpayable",
      "type": "function"
    },
    {
      "inputs": [
        {
          "internalType": "address",
          "name": "_token",
          "type": "address"
        }
      ],
      "name": "sweep",
      "outputs": [],
      "stateMutability": "nonpayable",
      "type": "function"
    },
    {
      "inputs": [],
      "name": "underlying",
      "outputs": [
        {
          "internalType": "contract IERC20",
          "name": "",
          "type": "address"
        }
      ],
      "stateMutability": "view",
      "type": "function"
    },
    {
      "inputs": [],
      "name": "vault",
      "outputs": [
        {
          "internalType": "contract IVault",
          "name": "",
          "type": "address"
        }
      ],
      "stateMutability": "view",
      "type": "function"
    },
    {
      "inputs": [
        {
          "internalType": "uint256",
          "name": "_amountNeeded",
          "type": "uint256"
        }
      ],
      "name": "withdraw",
      "outputs": [
        {
          "internalType": "uint256",
          "name": "_error",
          "type": "uint256"
        },
        {
          "internalType": "uint256",
          "name": "amountFreed",
          "type": "uint256"
        }
      ],
      "stateMutability": "nonpayable",
      "type": "function"
    }
  ],
  "bytecode": "0x60806040523480156200001157600080fd5b506040516200143438038062001434833981016040819052620000349162000560565b8062000041813362000049565b505062000644565b6001546001600160a01b031615620000a85760405162461bcd60e51b815260206004820152601c60248201527f537472617465677920616c726561647920696e697469616c697a65640000000060448201526064015b60405180910390fd5b600080546001600160a01b0319166001600160a01b038416908117909155604080516362eb326360e11b8152905163c5d664c6916004808201926020929091908290030181865afa15801562000102573d6000803e3d6000fd5b505050506040513d601f19601f8201168201806040525081019062000128919062000560565b600180546001600160a01b0319166001600160a01b0392909216918217905562000162908360001962000185602090811b6200077e17901c565b600280546001600160a01b0319166001600160a01b039290921691909117905550565b801580620002035750604051636eb1769f60e11b81523060048201526001600160a01b03838116602483015284169063dd62ed3e90604401602060405180830381865afa158015620001db573d6000803e3d6000fd5b505050506040513d601f19601f8201168201806040525081019062000201919062000580565b155b620002775760405162461bcd60e51b815260206004820152603660248201527f5361666545524332303a20617070726f76652066726f6d206e6f6e2d7a65726f60448201527f20746f206e6f6e2d7a65726f20616c6c6f77616e63650000000000000000000060648201526084016200009f565b604080516001600160a01b038416602482015260448082018490528251808303909101815260649091019091526020810180516001600160e01b0390811663095ea7b360e01b17909152620002cf918591620002d416565b505050565b600062000330826040518060400160405280602081526020017f5361666545524332303a206c6f772d6c6576656c2063616c6c206661696c6564815250856001600160a01b0316620003b260201b620008cb179092919060201c565b805190915015620002cf57808060200190518101906200035191906200059a565b620002cf5760405162461bcd60e51b815260206004820152602a60248201527f5361666545524332303a204552433230206f7065726174696f6e20646964206e6044820152691bdd081cdd58d8d9595960b21b60648201526084016200009f565b6060620003c38484600085620003cd565b90505b9392505050565b606082471015620004305760405162461bcd60e51b815260206004820152602660248201527f416464726573733a20696e73756666696369656e742062616c616e636520666f6044820152651c8818d85b1b60d21b60648201526084016200009f565b6001600160a01b0385163b620004895760405162461bcd60e51b815260206004820152601d60248201527f416464726573733a2063616c6c20746f206e6f6e2d636f6e747261637400000060448201526064016200009f565b600080866001600160a01b03168587604051620004a79190620005f1565b60006040518083038185875af1925050503d8060008114620004e6576040519150601f19603f3d011682016040523d82523d6000602084013e620004eb565b606091505b509092509050620004fe82828662000509565b979650505050505050565b606083156200051a575081620003c6565b8251156200052b5782518084602001fd5b8160405162461bcd60e51b81526004016200009f91906200060f565b6001600160a01b03811681146200055d57600080fd5b50565b6000602082840312156200057357600080fd5b8151620003c68162000547565b6000602082840312156200059357600080fd5b5051919050565b600060208284031215620005ad57600080fd5b81518015158114620003c657600080fd5b60005b83811015620005db578181015183820152602001620005c1565b83811115620005eb576000848401525b50505050565b6000825162000605818460208701620005be565b9190910192915050565b602081526000825180602084015262000630816040850160208701620005be565b601f01601f19169190910160400192915050565b610de080620006546000396000f3fe608060405234801561001057600080fd5b50600436106100f55760003560e01c80636f307dc311610097578063ce5494bb11610066578063ce5494bb1461020c578063efbb5cb01461021f578063fbfa77cf14610227578063fcf2d0ad1461023a57600080fd5b80636f307dc3146101b3578063759076e5146101de5780638da5cb5b146101e6578063b6b55f25146101f957600080fd5b806313af4035116100d357806313af40351461014c57806322f3e2d41461015f5780632e1a7d4d146101775780635641ec031461019f57600080fd5b806301681a62146100fa57806306fdde031461010f5780630da9f06e1461012d575b600080fd5b61010d610108366004610bbc565b610242565b005b6101176103eb565b6040516101249190610c05565b60405180910390f35b61013e61013b366004610c38565b90565b604051908152602001610124565b61010d61015a366004610bbc565b61040b565b61016761047a565b6040519015158152602001610124565b61018a610185366004610c38565b61049d565b60408051928352602083019190915201610124565b60025461016790600160a01b900460ff1681565b6001546101c6906001600160a01b031681565b6040516001600160a01b039091168152602001610124565b61013e610506565b6002546101c6906001600160a01b031681565b61013e610207366004610c38565b610585565b61010d61021a366004610bbc565b6105e9565b61013e6106cb565b6000546101c6906001600160a01b031681565b61010d610738565b61024a6108e4565b6001546001600160a01b038281169116141561029b5760405162461bcd60e51b815260206004820152600b60248201526a21756e6465726c79696e6760a81b60448201526064015b60405180910390fd5b6000546001600160a01b03828116911614156102e35760405162461bcd60e51b81526020600482015260076024820152662173686172657360c81b6044820152606401610292565b606060005b815181101561036b5781818151811061030357610303610c51565b60200260200101516001600160a01b0316836001600160a01b031614156103595760405162461bcd60e51b815260206004820152600a602482015269085c1c9bdd1958dd195960b21b6044820152606401610292565b8061036381610c67565b9150506102e8565b506002546040516370a0823160e01b81523060048201526103e79184916001600160a01b03918216918316906370a08231906024015b602060405180830381865afa1580156103be573d6000803e3d6000fd5b505050506040513d601f19601f820116820180604052508101906103e29190610c90565b6108fd565b5050565b6060604051806060016040528060218152602001610d8a60219139905090565b6104136108e4565b6001600160a01b03811661042657600080fd5b600280546001600160a01b0319166001600160a01b0383169081179091556040519081527f957090e72c0a1b3ebf83c682eb8c1f88c2a18cd0578b91a819efb28859f0f3a39060200160405180910390a150565b600080610485610506565b1180610498575060006104966106cb565b115b905090565b6000805481906001600160a01b031633146104e35760405162461bcd60e51b8152602060048201526006602482015265085d985d5b1d60d21b6044820152606401610292565b50506001546000908190610501906001600160a01b031633836108fd565b915091565b600080546040516314b433b760e11b815230600482015282916001600160a01b031690632968676e906024016040805180830381865afa15801561054e573d6000803e3d6000fd5b505050506040513d601f19601f820116820180604052508101906105729190610cbe565b602001516001600160f81b031692915050565b600080546001600160a01b031633146105c95760405162461bcd60e51b81526020600482015260066024820152650855985d5b1d60d21b6044820152606401610292565b6001546105e1906001600160a01b031633308561092d565b600092915050565b6000546001600160a01b0316331461060057600080fd5b60008054906101000a90046001600160a01b03166001600160a01b0316816001600160a01b031663fbfa77cf6040518163ffffffff1660e01b8152600401602060405180830381865afa15801561065b573d6000803e3d6000fd5b505050506040513d601f19601f8201168201806040525081019061067f9190610d35565b6001600160a01b03161461069257600080fd5b6001546040516370a0823160e01b81523060048201526106c8916001600160a01b031690839082906370a08231906024016103a1565b50565b6001546040516370a0823160e01b81523060048201526000916001600160a01b0316906370a0823190602401602060405180830381865afa158015610714573d6000803e3d6000fd5b505050506040513d601f19601f820116820180604052508101906104989190610c90565b6107406108e4565b6002805460ff60a01b1916600160a01b1790556040517f97e963041e952738788b9d4871d854d282065b8f90a464928d6528f2e9a4fd0b90600090a1565b8015806107f85750604051636eb1769f60e11b81523060048201526001600160a01b03838116602483015284169063dd62ed3e90604401602060405180830381865afa1580156107d2573d6000803e3d6000fd5b505050506040513d601f19601f820116820180604052508101906107f69190610c90565b155b6108635760405162461bcd60e51b815260206004820152603660248201527f5361666545524332303a20617070726f76652066726f6d206e6f6e2d7a65726f60448201527520746f206e6f6e2d7a65726f20616c6c6f77616e636560501b6064820152608401610292565b6040516001600160a01b0383166024820152604481018290526108c690849063095ea7b360e01b906064015b60408051601f198184030181529190526020810180516001600160e01b03166001600160e01b03199093169290921790915261096b565b505050565b60606108da8484600085610a3d565b90505b9392505050565b6002546001600160a01b031633146108fb57600080fd5b565b6040516001600160a01b0383166024820152604481018290526108c690849063a9059cbb60e01b9060640161088f565b6040516001600160a01b03808516602483015283166044820152606481018290526109659085906323b872dd60e01b9060840161088f565b50505050565b60006109c0826040518060400160405280602081526020017f5361666545524332303a206c6f772d6c6576656c2063616c6c206661696c6564815250856001600160a01b03166108cb9092919063ffffffff16565b8051909150156108c657808060200190518101906109de9190610d52565b6108c65760405162461bcd60e51b815260206004820152602a60248201527f5361666545524332303a204552433230206f7065726174696f6e20646964206e6044820152691bdd081cdd58d8d9595960b21b6064820152608401610292565b606082471015610a9e5760405162461bcd60e51b815260206004820152602660248201527f416464726573733a20696e73756666696369656e742062616c616e636520666f6044820152651c8818d85b1b60d21b6064820152608401610292565b6001600160a01b0385163b610af55760405162461bcd60e51b815260206004820152601d60248201527f416464726573733a2063616c6c20746f206e6f6e2d636f6e74726163740000006044820152606401610292565b600080866001600160a01b03168587604051610b119190610d6d565b60006040518083038185875af1925050503d8060008114610b4e576040519150601f19603f3d011682016040523d82523d6000602084013e610b53565b606091505b5091509150610b63828286610b6e565b979650505050505050565b60608315610b7d5750816108dd565b825115610b8d5782518084602001fd5b8160405162461bcd60e51b81526004016102929190610c05565b6001600160a01b03811681146106c857600080fd5b600060208284031215610bce57600080fd5b81356108dd81610ba7565b60005b83811015610bf4578181015183820152602001610bdc565b838111156109655750506000910152565b6020815260008251806020840152610c24816040850160208701610bd9565b601f01601f19169190910160400192915050565b600060208284031215610c4a57600080fd5b5035919050565b634e487b7160e01b600052603260045260246000fd5b6000600019821415610c8957634e487b7160e01b600052601160045260246000fd5b5060010190565b600060208284031215610ca257600080fd5b5051919050565b80518015158114610cb957600080fd5b919050565b600060408284031215610cd057600080fd5b6040516040810181811067ffffffffffffffff82111715610d0157634e487b7160e01b600052604160045260246000fd5b604052610d0d83610ca9565b815260208301516001600160f81b0381168114610d2957600080fd5b60208201529392505050565b600060208284031215610d4757600080fd5b81516108dd81610ba7565b600060208284031215610d6457600080fd5b6108dd82610ca9565b60008251610d7f818460208701610bd9565b919091019291505056fe53747261746567793c50726f746f636f6c4e616d653e3c546f6b656e547970653ea2646970667358221220c90597dce87f2aaa8f888359f5d338a1685fda6a7a1bf3c72f72f16562660c1a64736f6c634300080a0033",
  "linkReferences": {},
  "deployedLinkReferences": {}
}