{
  "_format": "hh-sol-artifact-1",
  "contractName": "Bridgerton",
  "sourceName": "contracts/Bridgerton.sol",
  "abi": [
    {
      "inputs": [
        {
          "internalType": "address",
          "name": "_stargateRouter",
          "type": "address"
        }
      ],
      "stateMutability": "nonpayable",
      "type": "constructor"
    },
    {
      "anonymous": false,
      "inputs": [
        {
          "indexed": true,
          "internalType": "address",
          "name": "previousOwner",
          "type": "address"
        },
        {
          "indexed": true,
          "internalType": "address",
          "name": "newOwner",
          "type": "address"
        }
      ],
      "name": "OwnershipTransferred",
      "type": "event"
    },
    {
      "anonymous": false,
      "inputs": [
        {
          "indexed": false,
          "internalType": "uint16",
          "name": "_chainId",
          "type": "uint16"
        },
        {
          "indexed": false,
          "internalType": "bytes",
          "name": "_srcAddress",
          "type": "bytes"
        },
        {
          "indexed": false,
          "internalType": "address",
          "name": "_token",
          "type": "address"
        },
        {
          "indexed": false,
          "internalType": "uint256",
          "name": "amountLD",
          "type": "uint256"
        }
      ],
      "name": "sgReceived",
      "type": "event"
    },
    {
      "inputs": [],
      "name": "TYPE_SWAP_REMOTE",
      "outputs": [
        {
          "internalType": "uint8",
          "name": "",
          "type": "uint8"
        }
      ],
      "stateMutability": "view",
      "type": "function"
    },
    {
      "inputs": [
        {
          "internalType": "address",
          "name": "_router",
          "type": "address"
        }
      ],
      "name": "_changeStargateRouter",
      "outputs": [],
      "stateMutability": "nonpayable",
      "type": "function"
    },
    {
      "inputs": [
        {
          "internalType": "uint16",
          "name": "_dstChainId",
          "type": "uint16"
        },
        {
          "internalType": "address",
          "name": "_toAddress",
          "type": "address"
        },
        {
          "internalType": "address",
          "name": "_vaultTo",
          "type": "address"
        }
      ],
      "name": "_externalGetSwapFee",
      "outputs": [
        {
          "internalType": "uint256",
          "name": "",
          "type": "uint256"
        }
      ],
      "stateMutability": "view",
      "type": "function"
    },
    {
      "inputs": [
        {
          "internalType": "uint256",
          "name": "_slippage",
          "type": "uint256"
        }
      ],
      "name": "_setSlippageProtectionOut",
      "outputs": [],
      "stateMutability": "nonpayable",
      "type": "function"
    },
    {
      "inputs": [
        {
          "internalType": "address",
          "name": "_address",
          "type": "address"
        },
        {
          "internalType": "uint256",
          "name": "_pid",
          "type": "uint256"
        }
      ],
      "name": "addAsset",
      "outputs": [],
      "stateMutability": "nonpayable",
      "type": "function"
    },
    {
      "inputs": [],
      "name": "owner",
      "outputs": [
        {
          "internalType": "address",
          "name": "",
          "type": "address"
        }
      ],
      "stateMutability": "view",
      "type": "function"
    },
    {
      "inputs": [
        {
          "internalType": "address",
          "name": "",
          "type": "address"
        }
      ],
      "name": "pids",
      "outputs": [
        {
          "internalType": "uint256",
          "name": "",
          "type": "uint256"
        }
      ],
      "stateMutability": "view",
      "type": "function"
    },
    {
      "inputs": [],
      "name": "renounceOwnership",
      "outputs": [],
      "stateMutability": "nonpayable",
      "type": "function"
    },
    {
      "inputs": [
        {
          "internalType": "address",
          "name": "_vault",
          "type": "address"
        }
      ],
      "name": "setVault",
      "outputs": [],
      "stateMutability": "nonpayable",
      "type": "function"
    },
    {
      "inputs": [
        {
          "internalType": "uint16",
          "name": "_chainId",
          "type": "uint16"
        },
        {
          "internalType": "bytes",
          "name": "_srcAddress",
          "type": "bytes"
        },
        {
          "internalType": "uint256",
          "name": "_nonce",
          "type": "uint256"
        },
        {
          "internalType": "address",
          "name": "_token",
          "type": "address"
        },
        {
          "internalType": "uint256",
          "name": "amountLD",
          "type": "uint256"
        },
        {
          "internalType": "bytes",
          "name": "payload",
          "type": "bytes"
        }
      ],
      "name": "sgReceive",
      "outputs": [],
      "stateMutability": "nonpayable",
      "type": "function"
    },
    {
      "inputs": [],
      "name": "stargateRouter",
      "outputs": [
        {
          "internalType": "address",
          "name": "",
          "type": "address"
        }
      ],
      "stateMutability": "view",
      "type": "function"
    },
    {
      "inputs": [
        {
          "internalType": "uint16",
          "name": "chainId",
          "type": "uint16"
        },
        {
          "internalType": "address",
          "name": "_asset",
          "type": "address"
        },
        {
          "internalType": "uint256",
          "name": "_amount",
          "type": "uint256"
        },
        {
          "internalType": "address",
          "name": "_vaultTo",
          "type": "address"
        }
      ],
      "name": "swap",
      "outputs": [
        {
          "internalType": "bool",
          "name": "",
          "type": "bool"
        }
      ],
      "stateMutability": "payable",
      "type": "function"
    },
    {
      "inputs": [
        {
          "internalType": "address",
          "name": "_asset",
          "type": "address"
        }
      ],
      "name": "sweep",
      "outputs": [],
      "stateMutability": "nonpayable",
      "type": "function"
    },
    {
      "inputs": [
        {
          "internalType": "address",
          "name": "newOwner",
          "type": "address"
        }
      ],
      "name": "transferOwnership",
      "outputs": [],
      "stateMutability": "nonpayable",
      "type": "function"
    },
    {
      "inputs": [
        {
          "internalType": "address",
          "name": "",
          "type": "address"
        }
      ],
      "name": "vaults",
      "outputs": [
        {
          "internalType": "bool",
          "name": "",
          "type": "bool"
        }
      ],
      "stateMutability": "view",
      "type": "function"
    },
    {
      "stateMutability": "payable",
      "type": "receive"
    }
  ],
  "bytecode": "0x6080604052603260045534801561001557600080fd5b50604051611530380380611530833981016040819052610034916100b2565b61003d33610062565b600280546001600160a01b0319166001600160a01b03929092169190911790556100e2565b600080546001600160a01b038381166001600160a01b0319831681178455604051919092169283917f8be0079c531659141344cd1fd0a4f28419497f9722a3daafe3b4186f6b6457e09190a35050565b6000602082840312156100c457600080fd5b81516001600160a01b03811681146100db57600080fd5b9392505050565b61143f806100f16000396000f3fe6080604052600436106100ec5760003560e01c80637a237c5c1161008a578063ab8236f311610059578063ab8236f31461029b578063df01df6f146102bb578063edd36beb146102e8578063f2fde38b146102fb57600080fd5b80637a237c5c146101e95780638da5cb5b14610209578063a622ee7c1461023b578063a9e56f3c1461027b57600080fd5b806359f74f67116100c657806359f74f671461016657806366a6a4bd146101945780636817031b146101b4578063715018a6146101d457600080fd5b806301681a62146100f8578063081a54001461011a578063139bbc841461014657600080fd5b366100f357005b600080fd5b34801561010457600080fd5b50610118610113366004610eee565b61031b565b005b34801561012657600080fd5b5061012f600181565b60405160ff90911681526020015b60405180910390f35b34801561015257600080fd5b50610118610161366004610f09565b6103d0565b34801561017257600080fd5b50610186610181366004610f34565b610443565b60405190815260200161013d565b3480156101a057600080fd5b506101186101af366004610f77565b610540565b3480156101c057600080fd5b506101186101cf366004610eee565b610586565b3480156101e057600080fd5b506101186105ec565b3480156101f557600080fd5b50610118610204366004610eee565b610622565b34801561021557600080fd5b506000546001600160a01b03165b6040516001600160a01b03909116815260200161013d565b34801561024757600080fd5b5061026b610256366004610eee565b60036020526000908152604090205460ff1681565b604051901515815260200161013d565b34801561028757600080fd5b50600254610223906001600160a01b031681565b3480156102a757600080fd5b506101186102b6366004611044565b6106bc565b3480156102c757600080fd5b506101866102d6366004610eee565b60016020526000908152604090205481565b61026b6102f63660046110db565b610701565b34801561030757600080fd5b50610118610316366004610eee565b610a5d565b6000546001600160a01b0316331461034e5760405162461bcd60e51b815260040161034590611128565b60405180910390fd5b6040516370a0823160e01b81523060048201526103cd9033906001600160a01b038416906370a0823190602401602060405180830381865afa158015610398573d6000803e3d6000fd5b505050506040513d601f19601f820116820180604052508101906103bc919061115d565b6001600160a01b0384169190610af5565b50565b6000546001600160a01b031633146103fa5760405162461bcd60e51b815260040161034590611128565b612710811061043e5760405162461bcd60e51b815260206004820152601060248201526f0a6d8d2e0e0c2ceca40e8de4090d2ced60831b6044820152606401610345565b600455565b600080836040516020016104579190611176565b604051602081830303815290604052905060008360405160200161047b9190611176565b60408051601f1981840301815260028054606085018452600080865260208681018290528551808701875293845261060f60f31b90840152858501929092529251630a51236960e01b8152919450926001600160a01b0390921691630a512369916104f2918b916001918991899190600401611218565b6040805180830381865afa15801561050e573d6000803e3d6000fd5b505050506040513d601f19601f820116820180604052508101906105329190611270565b5093505050505b9392505050565b6000546001600160a01b0316331461056a5760405162461bcd60e51b815260040161034590611128565b6001600160a01b03909116600090815260016020526040902055565b6000546001600160a01b031633146105b05760405162461bcd60e51b815260040161034590611128565b6001600160a01b0381166105c357600080fd5b6001600160a01b03166000908152600360205260409020805460ff19811660ff90911615179055565b6000546001600160a01b031633146106165760405162461bcd60e51b815260040161034590611128565b6106206000610b4c565b565b6000546001600160a01b0316331461064c5760405162461bcd60e51b815260040161034590611128565b6001600160a01b03811661069a5760405162461bcd60e51b81526020600482015260156024820152744d7573742062652076616c6964206164647265737360581b6044820152606401610345565b600280546001600160a01b0319166001600160a01b0392909216919091179055565b7ff384e0e88816a3074d0d64562559cbd89504e99f3496997dd6dbe50f7cf8c0a1868685856040516106f19493929190611294565b60405180910390a1505050505050565b3360009081526003602052604081205460ff1615156001146107655760405162461bcd60e51b815260206004820152601a60248201527f47657420796f7572206f776e20636f6e747261637420627275680000000000006044820152606401610345565b6040516370a0823160e01b815230600482015283906001600160a01b038616906370a0823190602401602060405180830381865afa1580156107ab573d6000803e3d6000fd5b505050506040513d601f19601f820116820180604052508101906107cf919061115d565b10156108295760405162461bcd60e51b815260206004820152602360248201527f436f6e747261637420646f65736e277420486f6c6420656e6f75676820746f6b604482015262656e7360e81b6064820152608401610345565b6001600160a01b038416600090815260016020526040902054806108815760405162461bcd60e51b815260206004820152600f60248201526e105cdcd95d08139bdd081059191959608a1b6044820152606401610345565b83600061088d82610b9c565b90506000336040516020016108a29190611176565b60405160208183030381529060405290506000866040516020016108c69190611176565b60405160208183030381529060405290506108e28a8383610bcb565b3410156109315760405162461bcd60e51b815260206004820152601860248201527f4e6f7420656e6f7567682066756e647320666f722067617300000000000000006044820152606401610345565b60025460405163095ea7b360e01b81526001600160a01b03918216600482015260248101869052908a169063095ea7b3906044016020604051808303816000875af1158015610984573d6000803e3d6000fd5b505050506040513d601f19601f820116820180604052508101906109a891906112cd565b50600280546040805160608101825260008082526020808301919091528251808401845294855261060f60f31b9085015280820193909352516327efc43f60e21b81526001600160a01b0390911691639fbf10fc913491610a1b918f918b91829132918d918d918d908d906004016112ef565b6000604051808303818588803b158015610a3457600080fd5b505af1158015610a48573d6000803e3d6000fd5b5060019e9d5050505050505050505050505050565b6000546001600160a01b03163314610a875760405162461bcd60e51b815260040161034590611128565b6001600160a01b038116610aec5760405162461bcd60e51b815260206004820152602660248201527f4f776e61626c653a206e6577206f776e657220697320746865207a65726f206160448201526564647265737360d01b6064820152608401610345565b6103cd81610b4c565b604080516001600160a01b038416602482015260448082018490528251808303909101815260649091019091526020810180516001600160e01b031663a9059cbb60e01b179052610b47908490610c7f565b505050565b600080546001600160a01b038381166001600160a01b0319831681178455604051919092169283917f8be0079c531659141344cd1fd0a4f28419497f9722a3daafe3b4186f6b6457e09190a35050565b6000612710600454612710610bb19190611382565b610bbb9084611399565b610bc591906113b8565b92915050565b6002805460408051606081018252600080825260208083018290528351808501855295865261060f60f31b90860152818301949094529051630a51236960e01b815283926001600160a01b031691630a51236991610c359189916001918a918a9190600401611218565b6040805180830381865afa158015610c51573d6000803e3d6000fd5b505050506040513d601f19601f82011682018060405250810190610c759190611270565b5095945050505050565b6000610cd4826040518060400160405280602081526020017f5361666545524332303a206c6f772d6c6576656c2063616c6c206661696c6564815250856001600160a01b0316610d519092919063ffffffff16565b805190915015610b475780806020019051810190610cf291906112cd565b610b475760405162461bcd60e51b815260206004820152602a60248201527f5361666545524332303a204552433230206f7065726174696f6e20646964206e6044820152691bdd081cdd58d8d9595960b21b6064820152608401610345565b6060610d608484600085610d68565b949350505050565b606082471015610dc95760405162461bcd60e51b815260206004820152602660248201527f416464726573733a20696e73756666696369656e742062616c616e636520666f6044820152651c8818d85b1b60d21b6064820152608401610345565b6001600160a01b0385163b610e205760405162461bcd60e51b815260206004820152601d60248201527f416464726573733a2063616c6c20746f206e6f6e2d636f6e74726163740000006044820152606401610345565b600080866001600160a01b03168587604051610e3c91906113da565b60006040518083038185875af1925050503d8060008114610e79576040519150601f19603f3d011682016040523d82523d6000602084013e610e7e565b606091505b5091509150610e8e828286610e99565b979650505050505050565b60608315610ea8575081610539565b825115610eb85782518084602001fd5b8160405162461bcd60e51b815260040161034591906113f6565b80356001600160a01b0381168114610ee957600080fd5b919050565b600060208284031215610f0057600080fd5b61053982610ed2565b600060208284031215610f1b57600080fd5b5035919050565b803561ffff81168114610ee957600080fd5b600080600060608486031215610f4957600080fd5b610f5284610f22565b9250610f6060208501610ed2565b9150610f6e60408501610ed2565b90509250925092565b60008060408385031215610f8a57600080fd5b610f9383610ed2565b946020939093013593505050565b634e487b7160e01b600052604160045260246000fd5b600082601f830112610fc857600080fd5b813567ffffffffffffffff80821115610fe357610fe3610fa1565b604051601f8301601f19908116603f0116810190828211818310171561100b5761100b610fa1565b8160405283815286602085880101111561102457600080fd5b836020870160208301376000602085830101528094505050505092915050565b60008060008060008060c0878903121561105d57600080fd5b61106687610f22565b9550602087013567ffffffffffffffff8082111561108357600080fd5b61108f8a838b01610fb7565b9650604089013595506110a460608a01610ed2565b94506080890135935060a08901359150808211156110c157600080fd5b506110ce89828a01610fb7565b9150509295509295509295565b600080600080608085870312156110f157600080fd5b6110fa85610f22565b935061110860208601610ed2565b92506040850135915061111d60608601610ed2565b905092959194509250565b6020808252818101527f4f776e61626c653a2063616c6c6572206973206e6f7420746865206f776e6572604082015260600190565b60006020828403121561116f57600080fd5b5051919050565b60609190911b6bffffffffffffffffffffffff1916815260140190565b60005b838110156111ae578181015183820152602001611196565b838111156111bd576000848401525b50505050565b600081518084526111db816020860160208601611193565b601f01601f19169290920160200192915050565b80518252602081015160208301526000604082015160606040850152610d6060608501826111c3565b61ffff8616815260ff8516602082015260a06040820152600061123e60a08301866111c3565b828103606084015261125081866111c3565b9050828103608084015261126481856111ef565b98975050505050505050565b6000806040838503121561128357600080fd5b505080516020909101519092909150565b61ffff851681526080602082015260006112b160808301866111c3565b6001600160a01b03949094166040830152506060015292915050565b6000602082840312156112df57600080fd5b8151801515811461053957600080fd5b600061012061ffff8c1683528a602084015289604084015260018060a01b03891660608401528760808401528660a08401528060c0840152611333818401876111ef565b905082810360e084015261134781866111c3565b905082810361010084015261135c81856111c3565b9c9b505050505050505050505050565b634e487b7160e01b600052601160045260246000fd5b6000828210156113945761139461136c565b500390565b60008160001904831182151516156113b3576113b361136c565b500290565b6000826113d557634e487b7160e01b600052601260045260246000fd5b500490565b600082516113ec818460208701611193565b9190910192915050565b60208152600061053960208301846111c356fea26469706673582212206f695aa37cbb5b8afea439c8a90f0ce1affabacb6c3baacd6aadae42f3f0c06c64736f6c634300080a0033",
  "linkReferences": {},
  "deployedLinkReferences": {}
}